:100000000C94D91A0C94191B0C94191B0C94191BE1
:100010000C94191B0C94191B0C94191B0C94191B90
:100020000C94191B0C94191B0C94191B0C94191B80
:100030000C94191B0C94191B0C94191B0C94191B70
:100040000C94191B0C9471A60C94191B0C94191B7D
:100050000C94191B0C9400A50C94191B0D945205BB
:100060000C94191B0C94C8640C94BE640C94191B5A
:100070000C94191B0C94191B0C94191B0C94191B30
:100080000C94191B0C94191B0C94191B0C94191B20
:100090000C94191B0C94191B0C94191B0C94191B10
:1000A0000C94191B0C94191B0C94191B0C94191B00
:1000B0000C94191B0C94191B0C94191B0C94191BF0
:1000C0000C94191B0C94191B0C94191B0C94191BE0
:1000D0000C94191B0C94191B0C94191B0C94191BD0
:1000E0000C94191B084AD73B3BCE016E84BCBFFD64
:1000F000C12F3D6C74319ABD56833DDA3D00C77FF8
:1001000011BED9E4BB4C3E916BAAAABE0000008090
:100110003F05A84CCDB2D44EB93836A9020C50B91F
:10012000918688083CA6AAAA2ABE000000803F004B
:100130000D9431160D94401F4E414E494E4954596D
:10014000494E46CDCCCC3D0AD7233C17B7D13877A2
:10015000CC2B329595E6241FB14F0A0000204100B8
:1001600000C84200401C4620BCBE4CCA1B0E5AAE02
:10017000C59D7400407A10F35A00A0724E18090011
:1001800010A5D4E80000E87648170000E40B5402FC
:100190000000CA9A3B000000E1F505000080969837
:1001A00000000040420F000000A086010000001087
:1001B0002700000000E803000000006400000000C9
:1001C000000A00000000000100000000002C76D8AA
:1001D00088DC674F0823DFC1DFAE59E1B1B796E590
:1001E000E3E453C63AE651997696E8E6C28426EBF4
:1001F000898C9B62ED407C6FFCEFBC9C9F40F2BA07
:10020000A56FA5F490055A2AF75C936B6CF9676D9E
:10021000C11BFCE0E40D47FEF520E6B500D0ED90F3
:100220002E0300943577050080841E080000204EC0
:100230000A000000C80C333333330F986E12831159
:1002400041EF8D2114893BE65516CFFEE6DB18D130
:10025000844B381BF77C1D901DA4BBE42420328402
:10026000725E228100C9F124ECA1E53D27434F4D88
:100270004D554E49434154494F4E004452595255F1
:100280004E004552524F525300494E464F0045438F
:10029000484F0053544F505045442E20005072692F
:1002A0006E7465722073746F707065642064756518
:1002B00020746F206572726F72732E2046697820E9
:1002C000746865206572726F7220616E6420757348
:1002D00065204D39393920746F20726573746172ED
:1002E000742E202854656D70657261747572652076
:1002F00069732072657365742E2053657420697468
:100300002061667465722072657374617274696EBF
:1003100067290A004E6F20436865636B73756D2013
:1003200077697468206C696E65206E756D626572A0
:100330002C204C617374204C696E653A20004E6F1E
:1003400020436865636B73756D2077697468206CF2
:10035000696E65206E756D6265722C204C617374D8
:10036000204C696E653A2000636865636B73756D38
:10037000206D69736D617463682C204C6173742007
:100380004C696E653A20004C696E65204E756D6251
:100390006572206973206E6F74204C617374204CF9
:1003A000696E65204E756D6265722B312C204C6133
:1003B0007374204C696E653A20004D313130005322
:1003C000657269616C20737461747573206D6973F3
:1003D0006D617463680A005344207265616420652E
:1003E00072726F720A002121204B494C4C206361CC
:1003F00075736564206279204B494C4C206275749A
:10040000746F6E2F70696E0A002121204B494C4C8D
:100410002063617573656420627920746F6F206D4D
:1004200075636820696E6163746976652074696DAF
:1004300065202D2063757272656E7420636F6D6D1B
:10044000616E643A2000627573793A207061757349
:10045000656420666F7220696E7075740A0062753B
:1004600073793A2070617573656420666F722075C8
:100470007365720A00627573793A2070726F6365F2
:100480007373696E670A004D656469612052656D1A
:100490006F766564004D6564696120496E736572AD
:1004A000746564004D36303000506C6561736520B2
:1004B0005265736574005052494E5445522048416C
:1004C0004C5445440025533A202553004B494C4C8D
:1004D00045442E20005072696E7465722068616C0C
:1004E0007465642E206B696C6C28292063616C6CC8
:1004F0006564210A006563686F3A004572726F7225
:100500003A0042696C696E656172204C6576656C73
:10051000696E6720477269643A0A00486F74656EB5
:100520006420746F6F20636F6C640A0053656E649F
:10053000204D31303820746F20726573756D650AF7
:1005400000496E736572742066696C616D656E74C6
:1005500020616E642073656E64204D3130380A006E
:1005600053656E64204D31303820746F20686561AA
:1005700074206E6F7A7A6C650A00473236204361C8
:100580006E63656C65640047323620486561746946
:100590006E67204E6F7A7A6C650047323620486568
:1005A0006174696E67204265640057616974696EA1
:1005B0006720666F72206865617475702E0A004648
:1005C00069786564204C656E677468205072696D47
:1005D0006500446F6E65205072696D696E67004DED
:1005E000616E75616C207072696D696E672E2E2E5A
:1005F000004C656176696E6720473236003F537064
:100600006563696669656420582C5920636F6F7251
:1006100064696E617465206F7574206F6620626F07
:10062000756E64732E0A003F2852296570656174E7
:100630002076616C7565206E6F7420706C617573C7
:1006400069626C653B206D7573742062652061740E
:10065000206C6561737420312E0A003F537065630E
:100660006966696564206E6F7A7A6C652074656D61
:100670007065726174757265206E6F7420706C6144
:10068000757369626C652E0A003F53706563696615
:100690006965642066696C616D656E742073697A42
:1006A00065206E6F7420706C61757369626C652E65
:1006B0000A003F53706563696669656420707269FA
:1006C0006D65206C656E677468206E6F7420706C49
:1006D00061757369626C652E0A003F5370656369CA
:1006E00066696564206E6F7A7A6C652073697A65D5
:1006F000206E6F7420706C61757369626C652E0A70
:10070000003F52657472616374696F6E204D756C41
:100710007469706C696572206D75737420626520F0
:100720007370656369666965642E0A003F5370657E
:100730006369666965642052657472616374696F88
:100740006E204D756C7469706C696572206E6F7483
:1007500020706C61757369626C652E0A003F53707E
:1007600065636966696564206C6179657220686596
:1007700069676874206E6F7420706C61757369624C
:100780006C652E0A0043292E0A003F537065636989
:1007900066696564206265642074656D7065726168
:1007A00074757265206E6F7420706C617573696208
:1007B0006C65202834302D00473236207374617206
:1007C00074696E672E2E2E0A00477269642070725B
:1007D0006F62696E6720646F6E652E0A0069646CD3
:1007E000650A00206F662000706F696E7420004DEE
:1007F000616E75616C2047323920004D616E756104
:100800006C204732392061626F727465640A00207F
:100810002844525952554E290047323920417574A7
:100820006F20426564204C6576656C696E67003F99
:1008300020284C2C522C462C4229206F7574206F96
:100840006620626F756E64732E0A003F2856296514
:1008500072626F7365206C6576656C20696D706C73
:1008600061757369626C652028302D34292E0A0069
:10087000426164205A2076616C75650A004E6F20D3
:1008800062696C696E65617220677269640A002032
:10089000440020204D32303020530020284469731A
:1008A00061626C6564293A0046696C616D656E74BD
:1008B0002073657474696E67730020204D32303187
:1008C0002058004D617820416363656C65726174E6
:1008D000696F6E2028756E6974732F73322900203A
:1008E000204D3230332058004D61782066656564B4
:1008F00072617465732028756E6974732F73290093
:1009000020520020204D3230342050004163636576
:100910006C65726174696F6E2028756E6974732FCF
:100920007332292028503C7072696E742D616363A4
:10093000656C3E20523C726574726163742D616314
:1009400063656C3E20543C74726176656C2D616306
:1009500063656C3E2900204A00205400205300208B
:10096000204D323035204200416476616E6365640B
:100970002028423C6D696E5F7365676D656E745FBC
:1009800074696D655F75733E20533C6D696E5F667B
:10099000656564726174653E20543C6D696E5F7478
:1009A000726176656C5F66656564726174653E2030
:1009B0004A3C6A756E635F6465763E290020440098
:1009C00020490020204D333031205000486F74659D
:1009D0006E642050494400203B0020550020204DEB
:1009E000363033204C0046696C616D656E74206C46
:1009F0006F61642F756E6C6F6164003B200020494D
:100A00006E76616C696420657874727564657220B5
:100A10000047322F47332062616420706172616D3C
:100A200065746572730A00536C6565702E2E2E0016
:100A30004D65736820706F696E74206F7574206FD8
:100A4000662072616E67650A00436C69636B20748F
:100A50006F20526573756D652E2E2E004E6F204DE2
:100A60006F76652E00456E642066696C65206C6942
:100A700073740A00426567696E2066696C65206C54
:100A80006973740A004E6F206D656469610A0028FD
:100A90006E6F2066696C65290043757272656E74AD
:100AA0002066696C653A20005344207072696E7448
:100AB000696E67206279746520004E6F742053441C
:100AC000207072696E74696E670A002E0A004465B0
:100AD0006C6574696F6E206661696C65642C204674
:100AE000696C653A200046696C652064656C6574C4
:100AF00065643A002569730025696D2025697300D6
:100B00002569682025696D202569730025696420A1
:100B10002569682025696D2025697300256979207C
:100B2000256964202569682025696D202569730081
:100B30005072696E742074696D653A20006F6B00A5
:100B40006F6666008E02890282027B026D02444556
:100B50004255473A004D31313320530043522D3135
:100B60003053204F46462E00434F4E4649475F457F
:100B700058504F5254004D4541545041434B00434F
:100B80004F4F4C45525F54454D504552415455527C
:100B900045004348414D4245525F54454D504552F2
:100BA00041545552450042414259535445505049D1
:100BB0004E470041524353004D4F54494F4E5F4DF5
:100BC0004F44455300544845524D414C5F50524F9D
:100BD00054454354494F4E00455854454E444544AE
:100BE0005F4D323000435553544F4D5F4649524D8F
:100BF000574152455F55504C4F4144004C464E5F63
:100C00005752495445004C4F4E475F46494C454E5C
:100C1000414D45004155544F5245504F52545F533A
:100C2000445F5354415455530053445F5752495401
:100C30004500524550454154004D554C54495F566E
:100C40004F4C554D45005344434152440050524F80
:100C50004D50545F535550504F525400484F5354C9
:100C60005F414354494F4E5F434F4D4D414E4453B6
:100C700000454D455247454E43595F5041525345FB
:100C80005200434153455F4C494748545F425249E3
:100C90004748544E45535300544F47474C455F4CCB
:100CA000494748545300534F4654574152455F50AB
:100CB0004F574552004255494C445F5045524345B9
:100CC0004E54004C4556454C494E475F44415441B3
:100CD000005A5F50524F42450052554E4F555400F6
:100CE0004155544F4C4556454C005052494E545F67
:100CF0004A4F420050524F475245535300415554BA
:100D00004F5245504F52545F54454D500041555439
:100D10004F5245504F52545F504F5300564F4C5511
:100D20004D455452494300454550524F4D004249AC
:100D30004E4152595F46494C455F5452414E5346CD
:100D400045520053455249414C5F584F4E5F584FF2
:100D50004646004649524D574152455F4E414D452A
:100D60003A4D61726C696E206275676669782D32E2
:100D70002E302E78202841707220203520323032DB
:100D8000322032333A32343A31372920534F5552D8
:100D900043455F434F44455F55524C3A6769746819
:100DA00075622E636F6D2F4D61726C696E4669724C
:100DB0006D776172652F4D61726C696E2050524F74
:100DC000544F434F4C5F56455253494F4E3A312E84
:100DD00030204D414348494E455F545950453A43B0
:100DE000522D3130532045585452554445525F439B
:100DF0004F554E543A3120555549443A6365646520
:100E0000326132662D343161322D343734382D3928
:100E10006231322D63353563363266333637666676
:100E20000A002F2F004D31343520533C696E646524
:100E3000783E206F7574206F662072616E67652042
:100E400028302D31290A003F4A206F7574206F66C3
:100E50002072616E67652028302E303120746F203B
:100E6000302E33290A0020580020204D61783A2086
:100E700000200020204D696E3A2000203B200020F9
:100E8000204D323131205300536F667420656E64FB
:100E900073746F70730046523A0020466C6F773A55
:100EA000200064697300656E0043290A0061626C6A
:100EB000656420286D696E2074656D702000436F35
:100EC0006C64206578747275646573206172652046
:100ED000004F4646004F4E0046696C616D656E746A
:100EE0002072756E6F757420004F46460A00466189
:100EF0006465204865696768742000426564204C19
:100F00006576656C696E6720004661696C65642072
:100F1000746F20656E61626C6520426564204C656B
:100F200076656C696E670A00496E76616C6964204B
:100F30006D6573682E0A004D34323120696E636F1F
:100F4000727265637420706172616D657465722080
:100F500075736167650A004D65736820706F696E0F
:100F600074206F7574206F662072616E67650A0069
:100F70004F666673657473204170706C69656400B8
:100F80004572723A20546F6F206661722100546F6F
:100F90006F206661722066726F6D20726566657281
:100FA000656E636520706F696E740A004545505226
:100FB0004F4D204F4B0A004D383400446F6E652072
:100FC0007072696E74696E672066696C650A004D9F
:100FD0003737004D33310020204D32303620580055
:100FE000486F6D65206F6666736574004469666658
:100FF0003A2020200046726F6D5374703A0053748B
:1010000065707065723A00556E4C6576656C3A0095
:101010004C6576656C65643A005261773A20202011
:1010200020000A4C6F676963616C3A00436F756E0C
:101030007420453A004361703A00436F6F6C696EEB
:10104000672E2E2E00453120255300426564204333
:101050006F6F6C696E672E2E2E00426564204865A6
:101060006174696E672E2E2E0023646566696E6555
:101070002044454641554C545F004B6420004B6969
:1010800020004B702000504944204175746F7475E6
:101090006E652066696E6973686564212050757499
:1010A00020746865206C617374204B702C204B6930
:1010B00020616E64204B6420636F6E7374616E7484
:1010C000732066726F6D2062656C6F7720696E7435
:1010D0006F20436F6E66696775726174696F6E2EFB
:1010E000680A00504944204175746F74756E65201C
:1010F0006661696C6564212074696D656F75740A39
:1011000000504944204175746F74756E65206661A6
:10111000696C6564212054656D70657261747572C7
:101120006520746F6F20686967680A005049442021
:101130004379636C65730025532025692F25690069
:10114000204B643A2000204B693A2000204B703A33
:10115000200020436C617373696320504944200A66
:10116000002054753A2000204B753A2000206D6114
:10117000783A2000206D696E3A200020643A200001
:1011800020626961733A200048656174696E672E58
:101190002E2E00504944204175746F74756E652081
:1011A00073746172740A00504944204175746F74FD
:1011B000756E65206661696C6564212054656D708B
:1011C0006572617475726520746F6F2068696768F5
:1011D0000A00504944204175746F74756E65005063
:1011E0004944204175746F74756E65206661696C41
:1011F00065642120426164206865617465722069BC
:10120000640A004572723A207574663820666F6E03
:1012100074206E6F7420696E697469616C697A6597
:10122000642E004572723A207574663820666F6EBF
:1012300074206E6F7420696E697469616C697A6577
:10124000642E004572723A207574663820666F6E9F
:1012500074206E6F7420696E697469616C697A6557
:10126000642E0042656400456E636C6F7375726531
:10127000002568753A25303268750025303268756A
:101280003A253032687500253032687527253032AE
:101290006875002020202020202000202020200011
:1012A000657272001FE02010201020101020102006
:1012B0002010201030300840048003001FE03FF071
:1012C0003FF03FF01FE01FE03FF03FF03FF00FC066
:1012D000078003003FFFF038007030FC3020FC1026
:1012E0002078102030102C00D02E31D02F7BD02F22
:1012F0007BD02E31D02C00D020301020781020FC54
:101300001030FC303800703FFFF03FFFF0380070C5
:101310003186302387102787902F87D02F03D02046
:1013200030102078102078102030102F03D02F8715
:10133000D02787902387103186303800703FFFF028
:101340001FFFF81FFFF804104002082002082004C5
:101350001040082080104100104100082080041037
:10136000400000001FFFF81FFFF83DF00238F04476
:1013700088064510808802450080F002448080A3E2
:10138000F24460809002441080900244104488022D
:10139000451039CC0739E00000000000003870E04B
:1013A0000000448910000004891000001889100012
:1013B0000004891000000489100000048910000056
:1013C00044891000003870E0005072696E7420414A
:1013D000626F72746564004D323520500A4D3234AC
:1013E0000050617573696E672E2E2E004D323400E9
:1013F000454550524F4D2056657273696F6E2045BA
:1014000072726F7200454550524F4D20496E6465AF
:1014100078204572726F7200454550524F4D2043FF
:101420005243204572726F72003F0049676E6F72BF
:101430006500526573657400496E697469616C6911
:101440007A6520454550524F4D004C6F6164206DC8
:101450006D00556E6C6F6164206D6D0046696C2E79
:10146000204469612E004520696E206D6D5E330059
:1014700020082046616374002008204D6178002018
:1014800008204D696E004F6666004F6E004175740E
:101490006F74656D70004D696E2054726176656C75
:1014A0002056656C004D696E2056656C6F636974DB
:1014B00079004D617820452056656C004D6178209B
:1014C0005A2056656C004D617820592056656C0095
:1014D0004D617820582056656C004D61782045207C
:1014E000416363656C004D6178205A2041636365F8
:1014F0006C004D6178205920416363656C004D613B
:1015000078205820416363656C0054726176656C85
:1015100020416363656C005265747261637420419D
:101520006363656C00416363656C0045207374659B
:1015300070732F6D6D005A2053746570732F6D6D2D
:1015400000592053746570732F6D6D0058205374CB
:101550006570732F6D6D00416476616E6365642004
:1015600053657474696E6773003F0043616E636511
:101570006C00496E6974004D34323800496E6974EC
:1015800069616C697A6520454550524F4D00466946
:101590006C616D656E740054656D70657261747513
:1015A00072650053746570732F6D6D004A756E63BC
:1015B00074696F6E2044657600416363656C657283
:1015C0006174696F6E0056656C6F6369747900535E
:1015D000657420486F6D65204F666673657473008F
:1015E000436F6E66696775726174696F6E003F0064
:1015F0004E65787420436F726E657200446F6E653D
:10160000004E657874004C6576656C696E672044A1
:101610006F6E6521004D6F7665205A00473239564E
:101620003100000C0F00FE07022503BB017FFE08FE
:10163000FE08FE05080806000040F0C88888987873
:1016400010050808060000C0F88888888888F80512
:1016500005050600012030F83020050808060000C6
:101660002070F820202020E00509090600FF2070E6
:10167000A8A8B888887020070505070001D86C362F
:101680006CD80509090600FFF8A88888888888A80A
:10169000F8050A0A0600FE205050505088A8A88875
:1016A0007003030306000340A040FFFFFFFFFFFF9E
:1016B000FFFFFFFFFFFFFFFFFFFFFFFFFFFFFFFF3A
:1016C0000000000605FF01070706020080808080F9
:1016D000800080030303060105A0A0A005060606FE
:1016E000000050F85050F8500509090600FF20701E
:1016F000A8A07028A87020050707060000C8C81019
:101700002040989805070706000040A0A040A89038
:10171000680103030602058080800309090601FFB2
:101720002040408080804040200309090601FF805E
:10173000404020202040408005070706000020A8E8
:10174000702070A8200505050600012020F8202043
:101750000203030601FFC04080050101060003F8F3
:10176000020202060100C0C00507070600000810BB
:101770001020404080050707060000708898A8C820
:10178000887003070706010040C040404040E00564
:101790000707060000708808102040F805070706B4
:1017A0000000F808103008887005070706000010D0
:1017B000305090F81010050707060000F880F00878
:1017C000088870050707060000304080F0888870A0
:1017D000050707060000F80810102020200507075D
:1017E000060000708888708888700507070600006A
:1017F00070888878081060020505060100C0C000E6
:10180000C0C00206060601FFC0C000C0408003053C
:10181000050601012040804020050303060002F870
:1018200000F80305050601018040204080050707F8
:101830000600007088102020002005070706000021
:101840007088B8A8B88070050707060000708888FF
:10185000F8888888050707060000F048487048485F
:10186000F0050707060000708880808088700507F3
:1018700007060000F04848484848F00507070600FA
:1018800000F88080F08080F8050707060000F880E7
:1018900080F08080800507070600007088808098AF
:1018A0008870050707060000888888F888888803FC
:1018B0000707060100E04040404040E005070706FA
:1018C000000038101010109060050707060000880F
:1018D00090A0C0A090880507070600008080808047
:1018E0008080F805070706000088D8A888888888BF
:1018F0000507070600008888C8A898888805070794
:101900000600007088888888887005070706000030
:10191000F08888F0808080050707060000708888BE
:1019200088A89068050707060000F08888F0A09056
:101930008805070706000070888070088870050712
:1019400007060000F82020202020200507070600B9
:1019500000888888888888700507070600008888BE
:10196000888850502005070706000088888888A8C6
:10197000A850050707060000888850205088880571
:10198000070706000088885020202020050707064A
:101990000000F80810204080F80309090601FFE064
:1019A00080808080808080E00507070600008040FE
:1019B00040201010080309090601FFE02020202024
:1019C000202020E0050303060005205088050101C2
:1019D0000600FEF803030306010580402005050507
:1019E00006000070087888780507070600008080E8
:1019F000F0888888F00505050600007080808870F2
:101A00000507070600000808788888887805050516
:101A10000600007088F08070050707060000304857
:101A200040E04040400507070600FE70888888783F
:101A300008700507070600008080F0888888880302
:101A400007070601004000C0404040E004090906C5
:101A500001FE1000301010101090600507070600FE
:101A60000080808890E09088030707060100C0404E
:101A700040404040E0050505060000D0A8A8A8A801
:101A8000050505060000B0C888888805050506001C
:101A90000070888888700507070600FEF08888882F
:101AA000F080800507070600FE7888888878080897
:101AB000050505060000B0C8808080050505060004
:101AC0000078807008F00507070600002020F82045
:101AD00020201805050506000088888898680505F7
:101AE0000506000088888850200505050600008846
:101AF00088A8A850050505060000885020508805D4
:101B000007070600FE8888885020408005050506E6
:101B10000000F8102040F80309090601FF204040AA
:101B20004080404040200109090602FF80808080FB
:101B300080808080800309090601FF8040404020AA
:101B40004040408005030306000248A890FF554E20
:101B50004C4F41442046494C414D454E54004C4F5A
:101B600041442046494C414D454E540046494C4164
:101B70004D454E54204348414E4745004142530095
:101B8000504C41004E65787420506F696E7400258A
:101B900069202F20257500473239563100436C6982
:101BA000636B20746F20426567696E00486F6D69D2
:101BB0006E672058595A0053746F726520536574CC
:101BC00074696E6773004C6F616420536574746947
:101BD0006E677300426564205472616D6D696E6753
:101BE000004661646520486569676874004F6666F1
:101BF000004F6E00426564204C6576656C696E67C7
:101C0000004C6576656C20426564004D6F74696FA9
:101C10006E00426564004E6F7A7A6C650046616EB4
:101C200020537065656400436F6E66696775726105
:101C300074696F6E00526573746F726520446566D7
:101C400061756C7473004C6F6164205365747469C2
:101C50006E67730053746F72652053657474696E98
:101C600067730050726568656174202420436F6E4D
:101C700066004F6666004F6E0052756E6F75742079
:101C800053656E736F7200416476616E63656420A4
:101C900053657474696E6773004D61696E004D37EA
:101CA000303220542564004D3630302042302054EC
:101CB0002564004D373032203B2564004D373031EC
:101CC00020542564004368616E67652046696C6135
:101CD0006D656E740050726568656174204375733C
:101CE000746F6D00507265686561742024004261F4
:101CF000636B004D363030423000436F6E74696E56
:101D00007565004F6666004F6E0052756E6F757494
:101D10002053656E736F72005075726765206D6F2A
:101D2000726500524553554D45204F5054494F4E12
:101D3000533A005052494E542050415553454400A7
:101D400020204E6F7A7A6C653A20005061726B6980
:101D50006E672E2E2E0000005761697420666F7228
:101D60000066696C616D656E74206368616E67659D
:101D700000746F2073746172740057616974206617
:101D80006F720066696C616D656E7420756E6C6F44
:101D9000616400004E6F7A7A6C65206865617469D1
:101DA0006E6700506C6561736520776169742E2ED3
:101DB0002E0000507265737320627574746F6E002C
:101DC000746F2068656174206E6F7A7A6C650000AC
:101DD000496E736572742066696C616D656E74001E
:101DE000616E6420707265737320627574746F6EB7
:101DF00000746F20636F6E74696E7565005761695A
:101E00007420666F720066696C616D656E74206C1B
:101E10006F61640000507265737320427574746F53
:101E20006E00746F20726573756D65207072696ED7
:101E30007400005761697420666F72207072696E59
:101E40007400746F20726573756D652E2E2E000000
:101E50005761697420666F720066696C616D656EAA
:101E600074207075726765000031323000350042B1
:101E700045443A204550434F53203130304B0052B7
:101E8000756E617761792057617463683A204F4EAF
:101E9000004D61782054656D7000323530004D6919
:101EA0006E2054656D7000350045313A2045504331
:101EB0004F53203130304B005053550047656E650D
:101EC0007269630050726F746F636F6C00312E30F3
:101ED0000042617564003131353230300043726543
:101EE000616C69747933442052414D50530042690A
:101EF0006C696E656172204C6576656C696E670011
:101F00004578747275646572730031006D61726C2E
:101F1000696E66772E6F72670043522D3130530021
:101F2000323032322D30342D3035006275676669BB
:101F3000782D322E302E78004D61726C696E00540F
:101F40006865726D6973746F727300426F61726459
:101F500020496E666F005072696E74657220496E1A
:101F6000666F004D61696E003F004261636B005314
:101F7000746F70003F004E4F00594553004E6F2064
:101F80004D65646961005072696E742066726F6D90
:101F9000204D65646961004368616E6765204D6529
:101FA000646961004D32310041626F757420507276
:101FB000696E746572004368616E67652046696C7E
:101FC000616D656E7400436F6E66696775726174EA
:101FD000696F6E0054656D7065726174757265002D
:101FE0004D6F74696F6E00526573756D6520507228
:101FF000696E740054756E650053746F7020507272
:10200000696E74005061757365205072696E74005A
:10201000496E666F2053637265656E003F005374AE
:10202000617274205072696E740043616E63656CF6
:10203000005072696E740043616E6E6F7420656E3D
:10204000746572207375626469723A200002202EF2
:102050002E004D61696E002100486F74656E64202A
:10206000746F6F20636F6C64004261636B00507229
:102070006F63656564004D6F74696F6E00446973CA
:1020800061626C65205374657070657273004D38C1
:102090003400426564204C6576656C696E6700416A
:1020A00075746F20486F6D6500473238004D616967
:1020B0006E0050726568656174202420426564007A
:1020C00050726568656174202420456E6400546513
:1020D0006D706572617475726500801B7C1B436F47
:1020E0006F6C646F776E0050726568656174202450
:1020F0000046616E20537065656400426564004E61
:102100006F7A7A6C65004D61696E00426162797325
:10211000746570205A00466C6F770046616E2053DC
:102120007065656400426564004E6F7A7A6C650084
:102130005370656564004D61696E00486F6D696E2E
:1021400067204661696C6564006F70656E0054526B
:1021500049474745524544003A200066696C616D25
:10216000656E74007A5F6D696E00795F6D696E00EF
:10217000785F6D696E005265706F7274696E67206A
:10218000656E6473746F70207374617475730A0084
:1021900020746F6F206C6F6E672065787472757332
:1021A000696F6E2070726576656E7465640A0020D2
:1021B000636F6C6420657874727573696F6E2070DC
:1021C000726576656E7465640A00000080400000E8
:1021D0000040000000005761726E696E673A204847
:1021E0006F6D696E672042756D7020446976697302
:1021F0006F72203C20310A0002020400809D4300DF
:102200000098430000C8430000A0400000A0400028
:1022100000004000809F43000099430000C8430035
:1022200000804000000040000000005365747469A5
:102230006E67732053746F72656400290A00206210
:10224000797465733B20637263200053657474690D
:102250006E67732053746F72656420280048617242
:1022600064636F6465642044656661756C742053B3
:10227000657474696E6773204C6F616465640020D7
:10228000286D6D2900203B204C6576656C696E6772
:10229000200020204D3432302053004175746F20CF
:1022A000426564204C6576656C696E670020460067
:1022B00020480020204D3134352053004D61746595
:1022C0007269616C206865617475702070617261FB
:1022D0006D657465727300203B2053656E736F7279
:1022E000200020204D34313220530046696C616D4E
:1022F000656E742072756E6F75742073656E736F82
:102300007200204A002020473239205720490020FF
:10231000204D3134392043203B20556E69747320A1
:10232000696E2043656C736975730A0054656D703E
:102330006572617475726520556E69747300202032
:10234000473231203B004C696E65617220556E69E1
:10235000747300454550524F4D2064617461736938
:102360007A65206572726F722E0A00290A00206257
:10237000797465733B2063726320002073746F72FD
:1023800065642073657474696E6773207265747216
:102390006965766564202800202863616C63756C2C
:1023A0006174656429210A0020213D2000454550C3
:1023B000524F4D20435243206D69736D61746368C1
:1023C000202D202873746F726564292000205369C2
:1023D0007A653A2000496E6465783A200000401C16
:1023E0004500401C450000C8420000C8410000A054
:1023F000420000A0420000C8430000BE42F40100B9
:1024000000F40100006400000088130000204D610A
:10241000726C696E3D563836290A00454550524F58
:102420004D2076657273696F6E206D69736D61748E
:1024300063682028454550524F4D3D0024F4D43068
:1024400050C38E20C2A24017828B7011127A910D58
:10245000816CD90AA861E108C75866076151430633
:102460001E4B5D05C145A7041A411104093D98039F
:10247000713931034036DB0265339102D4305402A6
:10248000802E1D02632CEE01752AC501B028A00123
:10249000102781018F2564012B244B01E022340198
:1024A000AC211F018D200D01801FFC00841EED005A
:1024B000971DDF00B81CD200E61BC600201BBC0025
:1024C000641AB200B219A8000A19A0006A1899008B
:1024D000D117910040178B00B516840031167E008D
:1024E000B31579003A157300C7146F0058146A00C9
:1024F000EE1366008813630025135E00C7125B00AD
:102500006C12570015125400C111510070114F0088
:1025100021114B00D61049008D1047004610440091
:1025200002104200C00F4000800F3E00420F3C00EE
:10253000060F3B00CB0E3800930E37005C0E3500C3
:10254000270E3400F30D3200C10D3100900D300024
:10255000600D2E00320D2D00050D2C00D90C2B0026
:10256000AE0C2900850C29005C0C2700350C2700D7
:102570000E0C2600E80B2400C40B2400A00B230043
:102580007D0B23005A0B2100390B2100180B200072
:10259000F80A1F00D90A1E00BB0A1E009D0A1D0072
:1025A000800A1D00630A1C00470A1B002C0A1B003E
:1025B000110A1A00F7091A00DD091900C4091900E7
:1025C000AB091900920917007B091800630917006D
:1025D0004C09160036091600200916000A091500D4
:1025E000F5081500E0081400CC081400B808140021
:1025F000A4081400900813007D0812006B08130053
:10260000580812004608120034081100230811006F
:102610001208110001081100F0071000E007100077
:10262000D0071000C0071000B0070F00A10710006E
:1026300091070E0083070F0074070F0065070E0057
:1026400057070E0049070E003B070D002E070E002E
:1026500020070D0013070D0006070D00F9060C00FA
:10266000ED060D00E0060C00D4060C00C8060C00B8
:10267000BC060C00B0060C00A4060B0099060C006A
:102680008D060B0082060B0077060B006C060B0014
:1026900061060A0057060B004C060A0042060A00B3
:1026A00038060A002E060A0024060A001A060A0046
:1026B0001006090007060A00FD050900F4050900D7
:1026C000EB050900E2050900D9050900D00509005C
:1026D000C7050900BE050900B5050800AD050800DD
:1026E000A50509009C050800940508008C05080054
:1026F000840508007C050800740508006C050700C7
:10270000650508005D050700560508004E05070031
:102710004705070040050800380507003105070098
:102720002A050700230507001C05060016050700FB
:102730000F0507000805060002050700FB04060058
:10274000F5040700EE040600E8040600E2040700B2
:10275000DB040600D5040600CF040600C904060009
:10276000C3040600BD040600B7040600B10405005A
:10277000AC040600A6040600A00405009B040600A5
:1027800095040500900406008A04050085040500F0
:10279000800406007A040500750405007004050035
:1027A0006B04050066040500610405005C04050077
:1027B00057040500520405004D04050048040500B7
:1027C000430405003E0404003A04050035040500F6
:1027D000300404002C040500270404002304050031
:1027E0001E0404001A040400160405001104040069
:1027F0000D0404000904050004040400000404009E
:10280000FC030400F8030400F4030400F0030400D4
:10281000EC030400E8030400E4030400E003040004
:10282000DC030400D8030400D4030400D003040034
:10283000CC030400C8030300C503030024F404D937
:10284000201BC40C5C0E9804C4095F02650771016B
:10285000F405F900FB04B30048048700C1036900D4
:102860005803550003034500BE023A0084023100BC
:1028700053022A002902250004022000E4011C0062
:10288000C8011900AF01170098011400840113005A
:10289000710110006101100051010E0043010D0093
:1028A00036010B002B010B0020010B001501090064
:1028B0000C01090003010800FB000800F3000800F8
:1028C000EB000700E4000600DE000600D80006006A
:1028D000D2000600CC000500C7000500C2000500BC
:1028E000BD000400B9000400B5000400B1000400FC
:1028F000AD000400A9000400A5000300A20003002D
:102900009F0004009B000300980003009500020054
:1029100093000300900003008D0002008B00030071
:10292000880002008600020084000300810002008B
:102930007F0002007D0002007B000200790002009F
:1029400077000100760002007400020072000100AE
:10295000710002006F0002006D0001006C000200B7
:102960006A000100690002006700010066000100C2
:1029700065000100640002006200010061000100C6
:10298000600001005F0002005D0001005C000100CA
:102990005B0001005A0001005900010058000100CD
:1029A00057000100560001005500010054000100CD
:1029B00053000000530001005200010051000100CB
:1029C000500001004F0001004E0000004E000100C9
:1029D0004D0001004C0001004B0000004B000100C5
:1029E0004A000100490001004800000048000100C1
:1029F00047000100460000004600010045000000BD
:102A000045000100440001004300000043000100B4
:102A100042000000420001004100000041000100AE
:102A2000400001003F0000003F0001003E000000A8
:102A30003E0001003D0000003D0001003C000000A0
:102A40003C0000003C0001003B0000003B00010096
:102A50003A0000003A00010039000000390001008E
:102A60003800000038000000380001003700000086
:102A7000370001003600000036000000360001007B
:102A80003500000035000000350001003400000072
:102A90003400000034000100330000003300000067
:102AA000330001003200000032000000320001005B
:102AB0003100000031000000310001003000000052
:102AC00030000000300001002F0000002F00000047
:102AD0002F0000002F0001002E0000002E0000003B
:102AE0002E0001002D0000002D0000002D00000030
:102AF0002D0001002C0000002C0000002C00000024
:102B00002C0001002B0000002B0000002B00000017
:102B10002B0001002A0000002A0000002A0000000B
:102B20002A000100290000002900000029000000FF
:102B300029000000290001002800000028000000F2
:102B400028000000280000002800010027000000E5
:102B500027000000270000002700000027000100D8
:102B600026000000260000002600000026000000CD
:102B700026000100250000002500000025000000BF
:102B800025000000250000002500010024000000B1
:102B900024000000240000002400000024000100A4
:102BA0002300000023000000230000002300000099
:102BB0002300000023000000230001002200000089
:102BC000220000002200000022000000220000007D
:102BD000220001002100000021000000210000006F
:102BE0002100000021000000210000002100010060
:102BF0002000000020000000200000002000000055
:102C00002000000020000000200000002000010043
:102C10001F0000001F0000001F0000001F00000038
:102C20001F0000001F0000001F0001001E00000028
:102C30001E0000001E0000001E00000004370000FF
:102C40001E290000511B0000581000001009000050
:102C5000CC040000780200004101000020436F75A1
:102C60006E7420583A0042656400453100450062A8
:102C70006564002C2073797374656D2073746F70B4
:102C800070656421204865617465725F49443A202B
:102C90000048656174696E67204661696C6564000F
:102CA00048656174696E67206661696C6564004D92
:102CB0003131322053687574646F776E00457272DB
:102CC0003A204D415854454D50004D415854454DC2
:102CD0005020747269676765726564004572723A64
:102CE000204D494E54454D50004D494E54454D5090
:102CF0002074726967676572656400544845524D77
:102D0000414C2052554E4157415900546865726DEF
:102D1000616C2052756E6177617900202F0020422E
:102D2000403A0020403A0020573A0020573A0049E4
:102D30006E76616C69642065787472756465720A78
:102D40000000002100240027002A002D003000335D
:102D50000001010000040107010A017C3C3E5E2BDA
:102D60003D3F2F5B5D3B2C2A225C0020583A0043FC
:102D7000616E6E6F74206F70656E2073756264692A
:102D80007220004D6564696120496E697420466156
:102D9000696C0053442063617264206F6B0A006F9A
:102DA00070656E526F6F74206661696C65640A00AD
:102DB000766F6C756D652E696E6974206661696CDD
:102DC00065640A004E6F20534420636172640A00F8
:102DD0000A4D3234004D3233202573002E0A006F25
:102DE00070656E206661696C65642C2046696C654F
:102DF0003A200046696C652073656C656374656490
:102E00000A002053697A653A200046696C65206F94
:102E100070656E65643A2000454E44205355425219
:102E20004F5554494E450A002220706F73002220EE
:102E3000706172656E743A2200535542524F555478
:102E4000494E452043414C4C207461726765743A89
:102E5000220053756263616C6C204F766572666CFC
:102E60006F77004578636565646564206D617820DF
:102E7000535542524F5554494E452064657074680D
:102E80003A0057726974696E6720746F2066696CC6
:102E9000653A2000667265736800646F696E67004A
:102EA0002066696C653A20004E6F7720002F6175AF
:102EB000746F25632E6700000000000000006000B2
:102EC00000000000FC00000FF00000000007E00020
:102ED00000000001861FC018700000000000603C68
:102EE0000C000001830C6010300000000000603C0A
:102EF0000C000001830C3030300000000000600046
:102F00000C000000030C18300000000000006000FE
:102F10003F0F3C00030C0C6001DF0FE0FE00601C63
:102F20001C061800060C0C6000F318318300600CBE
:102F30000C0318001E0C0C6000E030398300600C9C
:102F40000C033000030C0C6000C030380F00600C24
:102F50000C033000018C0C6000C03FF8FB00600CDB
:102F60000C033000018C0C6030C030018300600C19
:102F70000C01F001818C0C6030C030018300600CCA
:102F80000C00E001818C183030C018318300600CD7
:102F90000C40E001838C301860C00C6187C0E01CDD
:102FA0000CC06000C30C600FC3F007C0FFC7FC7FFC
:102FB0000781C0007E1FC00000000000000000006C
:102FC00000070000000000000000000000000000FA
:102FD000000700000000006D61726C696E66772E5C
:102FE0006F7267006275676669782D322E302E78B1
:102FF000001FFFFFFFFFFFFF600000000001FF4018
:103000000000000000FF8000000000007F83CF0070
:10301000000C303F87FF80000C301F867980000C49
:10302000000F8C30C7838C30E78C30CFC7CC31F3A6
:103030008C30DCECEC33B98C30D86C6C33198C30C0
:10304000D06C0C33198C30D86C0C33198C30DC6C90
:103050000E3B198C30CF7C079F198C30C77C038FB7
:103060001940000000000002600000000000061F80
:10307000FFFFFFFFFFF870012C0190012701B00155
:103080002201C0011D01F0011801100213013002DC
:103090000E016002090190020401C002FF0000035A
:1030A000FA004003F5008003F000D003EB00200499
:1030B000E6007004E100E004DC004005D700C00534
:1030C000D2004006CD00D006C8008007C3003008FB
:1030D000BE00F008B900C009B400B00AAF00B00BE0
:1030E000AA00D00CA500000EA000500F9B00C0103D
:1030F00096005012910000148C00C0158700B01784
:103100008200B0197D00D01B7800001E73004020A3
:103110006E0090226900F024640040275F0090292F
:103120005A00E02B5500102E500020304B0010327A
:103130004600E033410090353C00103737007038CE
:103140003200A0392D00B03A2800A03B2300603C9B
:103150001E00103D1900903D1400103E0F00703EFF
:103160000A00C03E0500003F0000403FFBFF803FDB
:10317000F6FFC03FF1FF2020506C616E6E65724219
:10318000756666657242797465733A2000204672EE
:103190006565204D656D6F72793A200020436F6D33
:1031A00070696C65643A204170722020352032309D
:1031B00032320A00204C617374205570646174656A
:1031C000643A20323032322D30342D3035207C209C
:1031D000417574686F723A20287072696E74656404
:1031E000736F6C69642E636F6D2C2043522D3130E8
:1031F00053290A004D61726C696E206275676669B9
:10320000782D322E302E780A0020536F6674776145
:1032100072652052657365740A0020576174636893
:10322000646F672052657365740A002042726F777D
:103230006E206F75742052657365740A002045789E
:103240007465726E616C2052657365740A00506F0C
:1032500077657255700A0073746172740A004732A0
:1032600037004D31303031006572726F72207772E5
:103270006974696E6720746F2066696C650A004422
:103280006F6E6520736176696E672066696C652E66
:103290000A004D323900456E6473746F70730025F7
:1032A0005320256320256320256320256300205AB1
:1032B0003A0020593A0020583A00656E6473746FE2
:1032C0007073206869743A200000002200250028ED
:1032D000002B002E0031003400020100000501081F
:1032E000010B01050505050705080808080202028B
:1032F000020A0A0808040404040101010101010191
:10330000010303030303030303040707070C0C0C67
:103310000C0C0C0C0C02020202060606060606063F
:10332000060B0B0B0B0B0B0B0B01021020200808DC
:103330001020401020408002010201080402010117
:103340000204081020408080402010080402018000
:103350000402018040201008040201080402010157
:103360000204081020408001020408102040800060
:10337000000A0B02090C0D0E0807030401000000EF
:10338000000000000000000000000000000000003D
:1033900000000000000000000000001211100000FA
:1033A000000000000000000000000000000000001D
:1033B0000000000000004D6F76652025736D6D00E4
:1033C0004D6F766520302E316D6D004D6F76652026
:1033D000316D6D004D6F76652031306D6D004D6F34
:1033E00076652041786973004D6F76652045787465
:1033F0007275646572004D6F7665205A004D6F7668
:10340000652059004D6F76652058005072696E74C2
:103410002066726F6D204D6564696100FFFFFF6B70
:103420002D73356F356B35496E736572742066691F
:103430006C616D656E7420616E642073656E6420CE
:103440004D3130380A00220A00556E6B6E6F776E70
:1034500020636F6D6D616E643A202200204200206F
:1034600050006F6B00204500205A0020590020209A
:103470004D39322058005374657073207065722086
:10348000756E6974004572726F7220777269746923
:103490006E6720746F20454550524F4D210A00DB66
:1034A0000FC93F45BCDA3F8FB30240FCF0274056BE
:1034B000946140FE4B9B4084A5D840E023184134E2
:1034C0006A5641E859974164DBD5416E271742B4EB
:1034D000B75542CE1A9742C8AED542B5885A43D4A2
:1034E0000684BFA65FA7BF7443E0BF10B11AC01C1B
:1034F0002C58C0E8F697C0B849D6C04E4E17C12424
:10350000D355C1802497C1A0B5D5C1121A17C244A2
:10351000AE55C2781797C26CACD5C267885AC32023
:10352000746F6F206C6F6E67206578747275736945
:103530006F6E2070726576656E7465640A00206334
:103540006F6C6420657874727573696F6E20707229
:103550006576656E7465640A00486F6D6520257335
:10356000257325732046697273740020453A002044
:103570005A3A0020593A00583A006F6B0A005265D7
:1035800073656E643A200043522D313053205265EA
:103590006164792E005072696E74696E672E2E2EEA
:1035A000005072696E7420506175736564009800F4
:1035B0009A0011241FBECFEFD1E2DEBFCDBF00E0E5
:1035C0000CBF84B78093CD1514BE0FB6F894A895A0
:1035D00080916000886180936000109260000FBE4F
:1035E00013E0A0E0B2E0E0E6FDE502E00BBF02C0C0
:1035F00007900D92A83BB107D9F725E1A8EBB3E0FE
:1036000001C01D92AD3CB207E1F71AE1C8EDDAE165
:1036100000E006C021970109802FFE010F94442B82
:10362000C73DD10780E00807A9F70F94F7160D945E
:103630009F2E0C9400008F929F92AF92BF92CF92D8
:10364000DF92EF92FF92CF936B017C0120E030E09C
:10365000A9010F947D2487FDC3C06DEB77E386E05D
:1036600095E3A70196010F945F2B6B017C0120E08D
:1036700030E0A9010F947D2487FFB7C0C701B601D0
:10368000905820E030E040E251E40F94E22420E042
:1036900030E040E251E40F94E22420E030E040EAE0
:1036A00050E40F945F2B20E030E040E251E40F94AF
:1036B0003B2C0F94A32C6B017C0160E280EAC816BE
:1036C00086E8D80681E0E806F1048CF0C701B6016F
:1036D00020EA36E841E050E00F94C92ACA01B90156
:1036E0002AE030E040E050E00F94C92A605D60932A
:1036F000310660E280E1C81687E2D806E104F104F1
:103700008CF0C701B60120E137E240E050E00F94B1
:10371000C92ACA01B9012AE030E040E050E00F9424
:10372000C92A605D6093320660E288EEC81683E0C5
:10373000D806E104F1048CF0C701B60128EE33E0AD
:1037400040E050E00F94C92ACA01B9012AE030E0F4
:1037500040E050E00F94C92A605D6093330660E258
:1037600084E6C816D104E104F1048CF0C701B60167
:1037700024E630E040E050E00F94C92ACA01B901C4
:103780002AE030E040E050E00F94C92A605D609389
:1037900034068AE0882E912CA12CB12CC701B601E9
:1037A000A50194010F94C92AC62FCA01B901A50128
:1037B00094010F94C92A605D609335068EE2809370
:1037C0003606C05DC093370681E396E0CF91FF9047
:1037D000EF90DF90CF90BF90AF909F908F90089523
:1037E0006DEB77E386E095EB3CCF20E030E040E204
:1037F00051E4C701B60149CFCF93DF93EC01CB0170
:10380000BA010F94832420E030E040E251E40F94A9
:103810003B2C688379838A839B83DF91CF910895C2
:103820000F94832420E030E040E251E40F943B2CDD
:1038300002CFCF93DF93EC01CB01BA010F94832425
:103840002AE037ED43E25DE30F943B2C0F94A82C64
:10385000688379838A839B83DF91CF910895CF9387
:10386000DF93EC01CB01BA010F9483242AE037EDFA
:1038700043E25DE30F943B2C688379838A839B83C7
:10388000DF91CF910895CF93DF93EC01CB01BA0183
:103890000F948324688379838A839B83DF91CF91FC
:1038A0000895CF93DF93EC01CB01BA010F948324E9
:1038B000688379838A839B83DF91CF910895CF9327
:1038C000DF93EC01CB01BA010F94832420E030E0B8
:1038D00048EC52E40F943B2C688379838A839B8362
:1038E000DF91CF910895CF93DF93EC01CB01BA0123
:1038F0000F9483240F94A32C79836883DF91CF9155
:103900000895CF93DF93EC01CB01BA010F94832488
:1039100020E030E04AE754E40F943B2C688379833D
:103920008A839B83DF91CF910895FC018491089550
:10393000FC0180810895FC01A081B1811C92A281CB
:10394000B3818C918F5F8C930280F381E02D908105
:103950008CE0989F800D1124EAEDF3E113AE84AF63
:103960000895119800C09091020187FD9095917083
:1039700090930001119A00C000C0119800C090916E
:10398000020186FD9095917090930001119A00C0FC
:1039900000C0119800C09091020185FD9095917032
:1039A00090930001119A00C000C0119800C090913E
:1039B000020184FD9095917090930001119A00C0CE
:1039C00000C0119800C09091020183FD9095917004
:1039D00090930001119A00C000C0119800C090910E
:1039E000020182FD9095917090930001119A00C0A0
:1039F00000C0119800C09091020181FD90959170D6
:103A000090930001119A00C000C0119800C08091ED
:103A10000201817080930001119A00C000C00895D6
:103A200090E080E00895CF93DF93C0915508D09146
:103A3000560881E0CE31D105E4F020E030E040E0EE
:103A40005FE3609151087091520880915308909102
:103A500054080F945F2B0F94A32C6C1B7D0B77FFE6
:103A600003C071956195710981E0633071050CF0B7
:103A700080E0DF91CF910895CF93DF93DB01F901CF
:103A80009C919130C1F0943080F094509C93883098
:103A9000D1F480819181009771F0019791838083A7
:103AA000480F591FEA01188206C08C3539F49C5F13
:103AB0009C93943041F4DF91CF9108958B3339F783
:103AC00081E08C93F8CF20813181B9016F5F7F4F06
:103AD00071836083420F531FEA0188838081918143
:103AE0008F3591056CF7E7CF0F931F9381E000911D
:103AF0002E1510912F1520913015309131154091D0
:103B00002A1550912B1560912C1570912D150417C5
:103B100015072607370708F480E01F910F910895D5
:103B200090E080E0089520917605833021F425FD12
:103B30000CC024FD0CC030E0A90102C0559547958A
:103B40008A95E2F7CA018170089581E0089580E0C6
:103B500008958091910584FD0BC08091930587FDA8
:103B600007C090919405937081E019F480E0089566
:103B700081E00895CF92DF92EF92FF92CF93DF938F
:103B8000EC01CC80DD80EE80FF8029EB3CEF4FEF35
:103B90005FE3C701B6010F94862D87FD23C023E0A4
:103BA00030E049E953E4C701B6010F947D241816AB
:103BB000CCF0C880D980EA80FB802DE53EEF4FE74E
:103BC00050E4C701B6010F94862D87FD0BC0C1E0FC
:103BD00023E030E84FE953E4C701B6010F947D2498
:103BE00018160CF4C0E08C2FDF91CF91FF90EF906E
:103BF000DF90CF900895BC01990F880B990B0F941B
:103C000083242091570630915806409159065091CF
:103C10005A060F94E22420914F06309150064091AD
:103C20005106509152060D945F2BBC01990F880BE1
:103C3000990B0F94832420915306309154064091A0
:103C40005506509156060F94E22420914B06309170
:103C50004C0640914D0650914E060D945F2B2FEB74
:103C6000280F2A3108F047C0E22FF0E0809191053B
:103C700090919205A0919305B091940504C0B695DA
:103C8000A795979587952A95D2F780FD02C08170F8
:103C90000895E958FA4FE081EE2341F18091D90867
:103CA0009091DA08E80FF92FF11D808190ED980FBF
:103CB0009A3030F08E3251F4818180538A3098F4FA
:103CC000F0936C05E0936B0581E008958D3211F05F
:103CD0008B3249F4818190ED980F9A3088F38E32BF
:103CE00011F48281EACFF0E0E0E0EACF10926C05B7
:103CF00010926B05E9CF80E00895B1DF882341F091
:103D000081E020916B0530916C05232B09F480E054
:103D1000089510922B0685E08093CC040895269A8E
:103D20002E9A0895CF92DF92EF92FF92CF93DF9376
:103D300000D01F92CDB7DEB76B017C0120E030E0F0
:103D4000A9010F947D2487FD1CC06DEB77E386E00D
:103D500095E3A70196010F945F2B69837A838B8388
:103D60009C8360E2CE0101960E945FC30F900F908A
:103D70000F900F90DF91CF91FF90EF90DF90CF9059
:103D800008956DEB77E386E095EBE3CF0F94832402
:103D900020E030E04AE754E40F943B2CC3CF80E0AE
:103DA00090E0A0E8B0E48093780290937902A09329
:103DB0007A02B0937B028AEE92E00E940FBA80E012
:103DC00090E0A0EFB1E48093700290937102A09311
:103DD0007202B09373028093740290937502A09361
:103DE0007602B0937702E0912706EE0FFF0BE653C1
:103DF000FD4F808191818330910549F18430910597
:103E000091F1029761F480E090E0A5E8B3E480933B
:103E1000700290937102A0937202B093730282EDCC
:103E200092E00E940FBA10927802109279021092DA
:103E30007A0210927B028AEE92E00E940FBA809181
:103E400027068F5F8430E4F480932706089580E08E
:103E500090E0A5E8B3E48093700290937102A09380
:103E60007202B093730280E090E0A6E8B3E480931E
:103E7000740290937502A0937602B0937702CFCF2D
:103E800010922706089563E972E084E690E00E94AC
:103E900050D270E060E08AE090E00E9450D26AEB7D
:103EA00072E084E690E00C9450D28111ECCF68E28D
:103EB00070E080E991E00C9450D2CF93DF9300D072
:103EC0001F92CDB7DEB70F94A82C0F94812469837D
:103ED0007A838B839C83CE0101960E94DCC20F9073
:103EE0000F900F900F90DF91CF9108950F9483243E
:103EF0002AE037ED43E25DE30F943B2CDECFCF9217
:103F0000DF92EF92FF92CF93DF9300D01F92CDB755
:103F1000DEB76B017C0120E030E0A9010F947D2425
:103F200087FD1BC06DEB77E386E095E3A701960163
:103F30000F945F2B69837A838B839C83CE010196D8
:103F40000E94DCC20F900F900F900F90DF91CF91E5
:103F5000FF90EF90DF90CF9008956DEB77E386E0D0
:103F600095EBE4CF0F9483242AE037ED43E25DE341
:103F70000F943B2CC4CF0F948324C1CFCF92DF92F8
:103F8000EF92FF926B017C0120E030E0A9010F94D9
:103F90007D2487FD26C06DEB77E386E095E3A701DE
:103FA00096010F945F2B6B017C0120E030E0A901AA
:103FB0000F947D2420E030E040E05FE387FF04C001
:103FC00020E030E040E05FEBC701B6010F945F2BCB
:103FD0000F94A32CCB01FF90EF90DF90CF900C9427
:103FE00035C56DEB77E386E095EBD9CF0F9483244D
:103FF000C5CFCF92DF92EF92FF92CF93DF9300D0A5
:104000001F92CDB7DEB70F94832420E030E048EC58
:1040100052E40F943B2C6B017C0120E030E0A901BD
:104020000F947D242DEB37E346E055E387FF04C072
:104030002DEB37E346E055EBC701B6010F945F2B3C
:1040400069837A838B839C83CE0101960E94FBC394
:104050000F900F900F900F90DF91CF91FF90EF9006
:10406000DF90CF9008950F9483240F94A32CCB015D
:104070000C94B4C50E943CA818CF0E94FAC003CF8C
:104080000C943EAB0C943EAB0C943EAB0C943EAB0C
:104090000C94F0AA0C94F0AA0C94F0AA0C94F0AA38
:1040A000CF93DF93C0915508D0915608209729F1FE
:1040B0006091510870915208809153089091540872
:1040C0000F94A32C6E5F7F4F24976C177D07ACF481
:1040D0007093A3066093A2060F946600605A754120
:1040E0008F4F9F4F6093A4067093A5068093A606FA
:1040F0009093A706DF91CF9108951092A406109295
:10410000A5061092A6061092A706F4CF0E9413C22D
:10411000CCCEBF92CF92DF92EF92FF920F931F937C
:10412000CF93DF936B01E9014A3009F4DFC04531D9
:1041300009F08AC0DB011296ED91FC911281C681D3
:10414000D78180910201809582708093000100C028
:10415000000086E290E00197F0F7012F0295007FC2
:1041600020E1B22EB10E88EFFCDB00C0000086E239
:1041700090E00197F0F7103208F0A5C0812F80770A
:104180008068EFDB802FEDDB00C0000086E290E06E
:104190000197F0F780E8E5DB80E0E3DB00C000009A
:1041A00086E290E00197F0F78AEFDBDB00C00000C9
:1041B00086E290E00197F0F77E01B0E1EB0EF11C92
:1041C0008881807FCEDB89918295807FCADBCE1586
:1041D000DF05B1F700C0000086E290E00197F0F73C
:1041E0001F5F005F1B11BFCF80910201827080931F
:1041F0000001D6011296ED91FC9180819281980F79
:1042000092832181921708F0EDC194819F5F94837E
:104210009381890F821710F08FEF820F838345817E
:1042200050E0440F551F70E060E0868197810F9445
:104230004B2E81E0DF91CF911F910F91FF90EF9076
:10424000DF90CF90BF900895FB010281138142332C
:1042500009F4CAC108F4D2C1463409F4BFC14734D5
:1042600009F4C7C14B3329F789812B81D8011296F4
:104270006C91129713964C91213009F404C22330AB
:1042800009F0E5C138EF380F582F91E0431708F4D3
:1042900090E041E0531708F040E031E0561708F491
:1042A00030E0592F542B352319F4942309F4C1CF4E
:1042B000FA8030E0F901EA54FD4FD0802E543D4F92
:1042C000F901E080DDC180EE810F8068807F49DBED
:1042D000812F8295807F45DB00C0000086E290E060
:1042E0000197F0F780E83DDB80E857CF809101012E
:1042F00082608093010180910201827080930001AD
:10430000809101018160809301018091020181709F
:1043100080930001099A119A809102018095827020
:104320008093000100C0000086E290E00197F0F762
:1043300088E790E0CEE9DFE0FE013197F1F70197E1
:10434000D9F788EF0EDB00C0000086E290E001970D
:10435000F0F780E206DB80E004DB00C0000086E2CC
:1043600090E00197F0F780E0FCDA80E8FADA00C02C
:10437000000086E290E00197F0F780E0F2DA80E159
:10438000F0DA00C0000086E290E00197F0F7CE017D
:104390000197F1F7CE010197F1F7CE010197F1F7FF
:1043A000CE010197F1F7CE010197F1F7CE01019708
:1043B000F1F7CE010197F1F7CE010197F1F7CE01A8
:1043C0000197F1F7CE010197F1F7CE010197F1F7CF
:1043D000CE010197F1F7CE010197F1F7CE010197D8
:1043E000F1F72197F1F780E2BCDA80E4BADA00C095
:1043F000000086E290E00197F0F780E2B2DA80E612
:10440000B0DA00C0000086E290E00197F0F7D0E05B
:10441000C0E08C2F80778068A4DA8D2FA2DA00C0EC
:10442000000086E290E00197F0F780E89ADA80E0F9
:1044300098DA00C0000086E290E00197F0F78AEF7A
:1044400090DA00C0000086E290E00197F0F790E279
:10445000119800C080910201817080930001119A2F
:1044600000C000C0119800C080910201817080934B
:104470000001119A00C000C0119800C08091020193
:10448000817080930001119A00C000C0119800C093
:1044900080910201817080930001119A00C000C0D8
:1044A000119800C080910201817080930001119ADF
:1044B00000C000C0119800C08091020181708093FB
:1044C0000001119A00C000C0119800C08091020143
:1044D000817080930001119A00C000C0119800C043
:1044E00080910201817080930001119A00C000C088
:1044F000119800C080910201817080930001119A8F
:1045000000C000C0119800C08091020181708093AA
:104510000001119A00C000C0119800C080910201F2
:10452000817080930001119A00C000C0119800C0F2
:1045300080910201817080930001119A00C000C037
:10454000119800C080910201817080930001119A3E
:1045500000C000C0119800C080910201817080935A
:104560000001119A00C000C0119800C080910201A2
:10457000817080930001119A00C000C0119800C0A2
:1045800080910201817080930001119A00C000C0E7
:1045900000C00000E6E2F0E03197F0F7915009F03A
:1045A00057CF88EFDED900C0000086E290E0019787
:1045B000F0F7CF5FD05FC03209F02BCF80E0D1D9C8
:1045C00080ECCFD900C0000086E290E00197F0F7C0
:1045D000809102018270809300012BCEF8018581C9
:1045E000888327CE80E026CEB901C8010F949C05B0
:1045F00020CED80111968C9188831BCE443191F046
:10460000473109F016CE1882D80112968C91129774
:10461000898315968C91159781508A8313968C9176
:104620008B8307CED80115964C91159750E0440F17
:10463000551F70E060E016968D919C910F944B2E63
:10464000F80112828081815083831482F2CD481751
:1046500008F4EFCD861708F4ECCDFA80E12CD12CCC
:10466000243070F426CEBE01C8010F949C058981C8
:1046700098819D0D98838E0D8983FF0C09F4D9CD07
:10468000F7FEF6CFF0CF58E0580F382FFECDEF925F
:10469000FF920F931F93CF93DF93EC018B017A016D
:1046A0008A859B858617970731F0888199810F94B9
:1046B000D3071B870A87B701888199810E9473FC01
:1046C0002E813F81820F932F911D9F838E8390E0D7
:1046D00080E0DF91CF911F910F91FF90EF900895AF
:1046E0009F92AF92BF92CF92DF92EF92FF920F9381
:1046F0001F93CF93DF93EC018B01942EA52E8A8517
:104700009B858617970731F0888199810F94D3078D
:104710001B870A8788859985019649F5BC800A819F
:104720008E81080FC880D980D6015596ED91FC91F5
:10473000C6011995B80EE92CFA2C10E0F701219169
:104740007F01211127C08E819F81810F911D9F8341
:104750008E8390E080E0DF91CF911F910F91FF90C9
:10476000EF90DF90CF90BF90AF909F9008950E8113
:104770001F81692D7A2D888199810E9473FC800F99
:10478000912F911D288539852817390738F681E042
:1047900090E0E1CF4B2D602FC6010F942B08080F3E
:1047A000180FCCCFDF92EF92FF920F931F93CF930E
:1047B000DF93EC01D62E1CAD0BAD7C0184E0E80E3E
:1047C000F11CE98DFA8DC7011995412F480F2D2D48
:1047D000602FC7010F942B089BAD890F8BAF81E031
:1047E00090E0DF91CF911F910F91FF90EF90DF90BC
:1047F0000895CF9380919B05811154C01092151498
:1048000010921614109217141092E3131092E213E0
:104810001092E5131092E4131092E71381E0809355
:10482000E61382E28093E8131092ED131092EC13DA
:10483000E1E0F4E12FE034E18FEF81932E173F07A1
:10484000E1F7C1E0C093FE1327E433EE3093F41395
:104850002093F313C093F5131092F6131092F713ED
:1048600090E49093F8131092F91326E433EE30930A
:10487000101420930F1429E132E03093E1132093B8
:10488000E01397E19093051491E19093061490E161
:104890009093031480930214809301140F94DA050B
:1048A000C0939B0581E080939D0583E692E1909300
:1048B0004713809346131092491310924813CF91D7
:1048C000089563E00D9472092F923F924F925F9288
:1048D0006F927F928F929F92AF92BF92CF92DF9210
:1048E000EF92FF921F93CF93DF93CDB7DEB72C9754
:1048F0000FB6F894DEBF0FBECDBF7A011901DC01FF
:104900002D913D914D915C912D833E834F8358872E
:10491000FB01408051806280738080907002909093
:104920007102A0907202B0907302A50194016D8192
:104930007E818F8198850F947D2481110EC011E0B6
:10494000A3019201609174027091750280917602C8
:10495000909177020F947D24811110E0D1012D9167
:104960003D914D915C9129873A874B875C87F70190
:10497000C080D180E280F38020910A0230910B0246
:1049800040910C0250910D02C701B6010F947D2495
:10499000882309F44EC0C0920A02D0920B02E09222
:1049A0000C02F0920D0280917C0290917D02A09108
:1049B0007E02B0917F024091740250917502609125
:1049C0007602709177028092970890929808A09250
:1049D0009908B0929A0840939B0850939C08609362
:1049E0009D0870939E08C0929F08D092A008E09204
:1049F000A108F092A2088093A3089093A408A09322
:104A0000A508B093A60820E030E040E05FE36091A5
:104A1000EE0D7091EF0D8091F00D9091F10D0F94CE
:104A2000E22469837A838B839C83CE0101960E9462
:104A30008ED12D813E814F815885209397083093E8
:104A400098084093990850939A0840929B08509276
:104A50009C0860929D0870929E08D1012D913D9115
:104A60004D915C916091A3087091A4088091A50874
:104A70009091A6080F945F2B6093A3087093A408ED
:104A80008093A5089093A60811112FC020E030E074
:104A9000A90169857A858B859C850F947D24811178
:104AA00033C060E070E088EC92E469837A838B83A2
:104AB0009C83CE0101960E948ED12C960FB6F8945D
:104AC000DEBF0FBECDBFDF91CF911F91FF90EF9062
:104AD000DF90CF90BF90AF909F908F907F906F901E
:104AE0005F904F903F902F9008952AEF3EE74AE263
:104AF0005FE36091F20D7091F30D8091F40D909150
:104B0000F50D0F94E224D1CF60E070E080EA91E4EB
:104B1000CCCF80916B0590916C05009731F04AE005
:104B200050E070E060E00D949E2260E070E0CB0108
:104B3000089580916B0590916C05009731F04AE0E3
:104B400050E070E060E00D94712160E070E0CB0116
:104B50000895CF93DF93EB01D0D8882311F0E9DFDC
:104B6000EB01CE01DF91CF910895E3DF97FD0AC0FD
:104B7000E0DF6F3F71058105910509F02CF4D9DF65
:104B8000862F089580E008958FEF0895CF93C62F64
:104B9000B4D8882311F0CF91E8CF8C2FCF9108950E
:104BA00080916B0590916C05892B39F0DEDF91E0E7
:104BB000811101C090E0892F089591E0FCCFCF933F
:104BC000DF93C82FD62F99D8882319F0DF91CF9182
:104BD000E7CF8C2F44D8811101C08D2FDF91CF9169
:104BE0000895A7DFCB010895CF93DF93EB0185D81C
:104BF000882319F0DF91CF91F4CFCE01DF91CF91CF
:104C000008950F931F93CF9380916B0590916C053E
:104C10000097E9F0FC018F01C1912C2F2F7D81F0CD
:104C2000C53411F0C536B9F7F801108270E060E0C4
:104C30000F941B20F801C083CF911F910F9108950D
:104C400070E060E0CF911F910F910D941B2060E008
:104C500070E0CB01F1CFCF92DF92EF92FF926A0129
:104C60007B014BD8882329F0FF90EF90DF90CF9005
:104C7000C8CFC701B601FF90EF90DF90CF900895A5
:104C80004F925F926F927F92AF92BF92CF92DF92DC
:104C9000EF92FF920F931F93CF938EEAA82E82E09C
:104CA000B82E97E9E92E98E0F92E00E712E026E108
:104CB000C22E2EE0D22EC0E0F50181915F011DD8F9
:104CC000882309F479C09DDF2B013C018C2F0E94C1
:104CD000931D882309F466C0F80120813181428147
:104CE0005381C301B2010F945F2BF701608371837D
:104CF00082839383CF5FF4E0EF0EF11C0C5F1F4FB4
:104D000084E0C80ED11CC330B9F685E40E947D1E34
:104D1000882309F45CC075DF6B017C0183E00E948D
:104D2000931D882371F020917C0230917D02409187
:104D30007E0250917F02C701B6010F945F2B6B0179
:104D40007C01C092A308D092A408E092A508F0923A
:104D5000A60840E050E0BA0186E47DDF20E030E0C4
:104D6000A9010F94862D18167CF44BDF20E030E06B
:104D700040E752E40F943B2C609366027093670205
:104D80008093680290936902CF911F910F91FF90D9
:104D9000EF90DF90CF90BF90AF907F906F905F903B
:104DA0004F900895F6012081318142815381C301E2
:104DB000B2010F945E2B99CFF80180819181A2817D
:104DC000B381F70180839183A283B38393CF8091D2
:104DD0007C0290917D02A0917E02B0917F0280932F
:104DE000A3089093A408A093A508B093A608B1CFF8
:104DF000CF93DF93CDB7DEB720E2488559856F8129
:104E00008E810E94CAFBDF91CF910895282F1092C6
:104E10008A088091750890917608A0917708B091E2
:104E20007808B7FF08C010927508109276081092A3
:104E300077081092780880912D06882331F08091B0
:104E4000750880936A081092850880916408181686
:104E5000FCF4082E000C990B821B910920916A0822
:104E6000022E000C330B2817390794F097FF02C06D
:104E700090E080E080936A08092E000CAA0BBB0B1F
:104E80008093750890937608A0937708B09378087C
:104E900080916A086623A9F090916B08891714F431
:104EA00080936B0820916B08022E000C330B2C5F53
:104EB0003F4F482F082E000C550B241735071CF4C4
:104EC000845080936B080895E0911F06E63028F522
:104ED00081E08E0F80931F064091750850917608EF
:104EE000609177087091780820916B089091640820
:104EF0008091930839E0E39FF0011124E751FA4FC4
:104F0000A091D813B091D913B183A0834283538366
:104F1000648375832683978380870895CF93DF9377
:104F2000CDB7DEB78E81282F082E000C330B909161
:104F300045139217130609F09CF4809345139E01C4
:104F4000275F3F4F4F81588564E570E080EF92E125
:104F50000F9445241092EF121092EE121092ED125F
:104F6000DF91CF9108950F931F93CF93DF938C011F
:104F70006F3F19F41092451360E020914513862F7E
:104F8000062E000C990B2817190609F024F56093DA
:104F90004513C8010F94CC23800F911FEC01C01B57
:104FA000D10BC535D1053CF00197FC012491207C43
:104FB0002038D1F3F3CFDD27AE01B80180EF92E1C5
:104FC0000F94ED23C051DD4E18821092EF12109213
:104FD000EE121092ED12DF91CF911F910F91089573
:104FE000CF93DF939091C10D93FD53C0C82F89E4F7
:104FF0000E947D1E882309F44FC0B7DD90E018168B
:10500000190614F481E090E026E0289FF001299F22
:10501000F00D1124E85AF74F82819381D0E08E364B
:10502000910514F08EE690E0909356088093550811
:1050300037D86091550870915608072E000C880BE0
:10504000990B0F948324209151083091520840917C
:105050005308509154080F94862D60E0181684F47C
:105060008AE590E180DF61E06C278C2F0E94C5C249
:10507000CC2349F060E08D2FDF91CF910C94E3A118
:105080008BE490E1EFCF83E19DE19093EF12809369
:10509000EE12DF91CF91089583E50E947D1ED82FF7
:1050A000811107C0CC23A9F382E50E947D1E8823CD
:1050B00081F397DDB4CF0F931F930F946600009197
:1050C000DD081091DE082091DF083091E008601BB8
:1050D000710B820B930B97FD0EC086B186FB882760
:1050E00080F991E08927349B8260079B02C0329B44
:1050F00084608093E1088091E10881709091E108DB
:1051000091FD82609091E005981749F0813009F196
:1051100048F0823079F0833091F08093E0051F9160
:105120000F910895913079F09230B9F79091DF05A1
:1051300091500CC0992339F09330C1F3EECF9130E8
:10514000A9F3923051F79091DF059F5F9093DF05AF
:10515000E4CF992359F3933001F7F5CFCF92DF9243
:10516000EF92FF92CF93C82F0F9466006B017C01E2
:1051700024EA30E74DE75FE360912A0270912B0249
:1051800080912C0290912D020F947D2487FD18C0F0
:105190008AEF90E0A0E0B0E08C0D9D1DAE1DBF1D1C
:1051A0008093CE059093CF05A093D005B093D10501
:1051B000C0932102CF91FF90EF90DF90CF900895A0
:1051C00080E090E0DC01E8CF14DB3E98469A3C9802
:1051D000449A3A98429A0F98179A6DDF1092DF0519
:1051E0000C947AF7CF92DF92EF92FF920F931F9376
:1051F0000F94660000919F051091A0052091A105D4
:105200003091A2056B017C01C01AD10AE20AF30AAF
:105210009701860137FD11C020919E0520952093AE
:105220009E056A547C4F8F4F9F4F60939F057093EC
:10523000A0058093A1059093A20581E090919E0521
:10524000911101C080E01F910F91FF90EF90DF90CE
:10525000CF900895FC0180E0309749F09491992314
:1052600031F0907C903809F08F5F3196F7CF089538
:10527000009751F0FC0180E09191992331F0907CEE
:105280009038D1F38F5FF8CF80E00895AF92BF924E
:10529000CF92DF92EF92FF920F931F93CF93DF9302
:1052A000EC015B018A01FB01199587FD16C0C82E30
:1052B000D12CF12CE12C2196F801C082D182E2821E
:1052C000F382CE01DF91CF911F910F91FF90EF906C
:1052D000DF90CF90BF90AF900895982F907E903C34
:1052E000A9F48F7190E0B0E0A0E06C017D0156E080
:1052F000CC0CDD1CEE1CFF1C5A95D1F7CE0101969B
:10530000F50119958F73C82A2296D6CF982F907FD2
:10531000903E11F58F7090E0B0E0A0E06C017D014F
:1053200036E0CC0CDD1CEE1CFF1C3A95D1F7CE010B
:105330000196F50119958F73C82A46E0CC0CDD1C47
:10534000EE1CFF1C4A95D1F7CE010296F501199586
:105350008F73C82A2396B0CF982F987F903F79F506
:10536000877090E0B0E0A0E06C017D0186E0CC0C9D
:10537000DD1CEE1CFF1C8A95D1F7CE010196F501CC
:1053800019958F73C82A96E0CC0CDD1CEE1CFF1C0F
:105390009A95D1F7CE010296F50119958F73C82A17
:1053A00026E0CC0CDD1CEE1CFF1C2A95D1F7CE01AB
:1053B0000396F50119958F73C82A24967DCF982FEF
:1053C000907C903841F4807C803869F42196CE013D
:1053D000F5011995F8CF8E7F8D3F28F02196CE01EB
:1053E000F5011995F8CFC12CD12C760165CF20E0BD
:1053F00030E040E05FE36091BB087091BC088091B1
:10540000BD089091BE080F945F2B0F94A32CCB0185
:1054100008959CE0899F802D112491E0980F90932E
:105420009C052CE0280F20938D0830E02E5F3F4F25
:10543000409112144217130619F014F080E00895F9
:10544000209114149217D0F7662341F08E5F0F94C9
:10545000FC0680918D088E5F0F94FC0680918D086C
:1054600090911214891750F32091141490919C0577
:10547000291720F3109215148093161481E00895D3
:1054800020919A05022E000C330B8217130641F06F
:1054900080939A0562E276E18EED93E10D94D30755
:1054A0000895CF92DF92EF92FF920F931F93CF93C5
:1054B000DF93CDB7DEB72C970FB6F894DEBF0FBEE3
:1054C000CDBF6F3F71058105910509F0C8F48AEDE4
:1054D00093E168D9E091E213F091E313319684915E
:1054E00090E02C960FB6F894DEBF0FBECDBFDF91D3
:1054F000CF911F910F91FF90EF90DF90CF90089583
:10550000F0901514E090161420919D0521110FC004
:1055100043E452E16E2D8F2D0F94960890E080E0C9
:10552000F80EF0921514E09216149927DACFC09075
:10553000E213D090E3132EED33E13A8329832F2D2C
:1055400030E03C832B832E2D30E03E832D83188664
:105550001F822FEF3FEF3A8729871C861B8600E7C3
:1055600013E29E012F5F3F4FAB01BC01C6010E94B9
:1055700049F6B6018EED93E10F94D3078F8198859C
:10558000CFCF4F925F926F927F928F929F92BF92F6
:10559000CF92DF92EF92FF920F931F93CF93DF93FF
:1055A00000D000D01F921F92CDB7DEB77C016A01F8
:1055B0004901FB0190818CE0989F800D1124982F68
:1055C000F7012081822F880F820F880F8093151496
:1055D000909316144115510561F1FA82E9827C839A
:1055E0006B8301111FC0AE014B5F5F4FB401C60159
:1055F0004DDE6C016D817E818F819885611571050D
:1056000081059105B1F04DDFF70180818F5F8083C7
:10561000853148F3CE0101960E949B1CE4CFB12C4A
:10562000860129C08A01B12C26C045284628472872
:10563000B1F728960FB6F894DEBF0FBECDBFDF914D
:10564000CF911F910F91FF90EF90DF90CF90BF907F
:105650009F908F907F906F905F904F900895B3943C
:1056600007C0B1102DC001151105C9F20F5F1F4F02
:1056700001151105A9F2AE014B5F5F4FB401C601E0
:1056800005DE6C014D805E806F807884411451048A
:1056900061047104A9F0F0E24F1651046104710431
:1056A00001F3D301C2018D97A109B1090297A105A8
:1056B000B10530F04BE2441651046104710479F6EF
:1056C000F7018081482F4B0D5527551F4631510555
:1056D00034F0853020F0CE0101960E949B1C81E0C1
:1056E000411451046104710409F480E0B80EF7011B
:1056F00080818B0D8083BB2009F497CFBA94AE01D3
:105700004B5F5F4FB401C801C1DD8C016D817E81AB
:105710008F819885C6DEEFCFCF93DF93FC0125AD57
:10572000211104C021E025AF0F94DA05C091E013E8
:10573000D091E113E0910F14F091101482E01995CB
:10574000E0910F14F091101481E0199530E020E001
:1057500044E1BE018EED93E10F94D60521E134E1E1
:1057600047E1BE018EED93E10F94D605E0910F1451
:10577000F091101480E0DF91CF911994CF92DF92D5
:10578000EF92FF920F931F93CF93DF93CDB7DEB7C6
:105790002C970FB6F894DEBF0FBECDBFF090151456
:1057A000E090161420919D0521111DC043E252E1A5
:1057B0006E2D8F2D0F94960890E080E0F80EF092F9
:1057C0001514E092161499272C960FB6F894DEBFA4
:1057D0000FBECDBFDF91CF911F910F91FF90EF9042
:1057E000DF90CF900895C090E213D090E3132EED98
:1057F00033E13A8329832F2D30E03C832B832E2DF8
:1058000030E03E832D8318861F827A8769871C8645
:105810001B8600E713E29E012F5F3F4F45E95CE1E5
:10582000BC01C6010E940DF7B6018EED93E10F9405
:10583000D3078F819885C2CF8F929F92AF92BF92EC
:10584000CF92DF92EF92FF920F931F93CF93DF934C
:1058500000D01F92CDB7DEB77C01062F5A01122F60
:10586000862F660F990B9C0122553D4F690186E0FA
:10587000882E912C11160CF03DC0AE014F5F5F4F8A
:1058800065E97CE1C70102DD7C0169817A818B8158
:105890009C81611571058105910561F16D3371057B
:1058A0008105910509F45DC06E377105810591058B
:1058B00009F457C06A3271058105910569F507FF42
:1058C00011C087E692E10E3F11F083E692E136E0E7
:1058D0001302B001112452DF66E070E00F94312B07
:1058E000161B6DC065E470E080E090E0DADD1150D9
:1058F000D1F510E0812F0F900F900F900F90DF9156
:10590000CF911F910F91FF90EF90DF90CF90BF90BC
:10591000AF909F908F900895643271058105910535
:1059200071F4A114B104D1F0E6E01E02B00111241B
:10593000C50124DFB4010F94312B161B9BCF6034BB
:1059400071058105910551F41150F6016081062E13
:10595000000C770B880B990BA4DD8CCFA2DD1150C6
:1059600089CF07FDAECF61E089819A81AB81BC818F
:10597000CD97A105B10509F460E0600F6A30A4F08D
:105980001150862F6AE00F94102B092F682F880F73
:10599000770B605D7F4F072E000C880B990B81DD24
:1059A000112309F4A6CF602F062E000C770B605D43
:1059B0007F4F072E000C880B990B73DD11501123BC
:1059C00009F497CF86E01802B0011124C701D6DE92
:1059D00066E070E00F94312B161B8CCFEAEDF3E1FB
:1059E00083AF64AF6FEF7FEFCA01C8CECF92DF9273
:1059F000EF92FF920F931F93CF93DF93CDB7DEB754
:105A00002C970FB6F894DEBF0FBECDBFF0901514E3
:105A1000E090161420919D0521111DC043E052E134
:105A20006E2D8F2D0F94960890E080E0F80EF09286
:105A30001514E092161499272C960FB6F894DEBF31
:105A40000FBECDBFDF91CF911F910F91FF90EF90CF
:105A5000DF90CF900895C090E213D090E3132EED25
:105A600033E13A8329832F2D30E03C832B832E2D85
:105A700030E03E832D8318861F827A8769871C86D3
:105A80001B8600E713E29E012F5F3F4F48E95CE170
:105A9000BC01C6010E940DF7B6018EED93E10F9493
:105AA000D3078F819885C2CF8F929F92AF92BF927A
:105AB000CF92DF92EF92FF920F931F93CF93DF93DA
:105AC0005B01C42F790141FB662760F9A2DC8823C2
:105AD00009F45CC0D12CC12CA114B10431F0C50172
