:100000000C94DF1A0C941F1B0C941F1B0C941F1BC9
:100010000C941F1B0C941F1B0C941F1B0C941F1B78
:100020000C941F1B0C941F1B0C941F1B0C941F1B68
:100030000C941F1B0D942C0A0C941F1B0C941F1B5B
:100040000C941F1B0C9430B00C941F1B0C941F1BA2
:100050000C941F1B0C941F1B0C94BBAE0D94E20957
:100060000C941F1B0C94D56F0C94CB6F0C941F1B1E
:100070000C941F1B0C941F1B0C941F1B0C941F1B18
:100080000C941F1B0C941F1B0C941F1B0C941F1B08
:100090000C941F1B0C941F1B0C941F1B0C941F1BF8
:1000A0000C941F1B0C941F1B0C941F1B0C941F1BE8
:1000B0000C941F1B0C941F1B0C941F1B0C941F1BD8
:1000C0000C941F1B0C941F1B0C941F1B0C941F1BC8
:1000D0000C941F1B0C941F1B0C941F1B0C941F1BB8
:1000E0000C941F1B084AD73B3BCE016E84BCBFFD5E
:1000F000C12F3D6C74319ABD56833DDA3D00C77FF8
:1001000011BED9E4BB4C3E916BAAAABE0000008090
:100110003F05A84CCDB2D44EB93836A9020C50B91F
:10012000918688083CA6AAAA2ABE000000803F004B
:100130000D943A040D9405040D9444040D940004A8
:100140000D948C220D9452040D9436040D94560493
:100150000D942C040D9430040D9448040D94260441
:100160000D9423040D94601B0D943E040D944C04D7
:100170000D9417040D941F040D941B044E414E4919
:100180004E495459494E46CDCCCC3D0AD7233C1755
:10019000B7D13877CC2B329595E6241FB14F0A00A2
:1001A0000020410000C84200401C4620BCBE4CCA92
:1001B0001B0E5AAEC59D7400407A10F35A00A0720F
:1001C0004E18090010A5D4E80000E8764817000092
:1001D000E40B54020000CA9A3B000000E1F5050060
:1001E0000080969800000040420F000000A08601A9
:1001F000000000102700000000E803000000006479
:1002000000000000000A00000000000100000000E3
:10021000002C76D888DC674F0823DFC1DFAE59E1B8
:10022000B1B796E5E3E453C63AE651997696E8E627
:10023000C28426EB898C9B62ED407C6FFCEFBC9CFA
:100240009F40F2BAA56FA5F490055A2AF75C936B0C
:100250006CF9676DC11BFCE0E40D47FEF520E6B5C7
:1002600000D0ED902E0300943577050080841E08A1
:100270000000204E0A000000C80C333333330F98BF
:100280006E12831141EF8D2114893BE65516CFFE86
:10029000E6DB18D1844B381BF77C1D901DA4BBE412
:1002A00024203284725E228100C9F124ECA1E53D54
:1002B00027434F4D4D554E49434154494F4E0044FD
:1002C000525952554E004552524F525300494E46D4
:1002D0004F004543484F00554E4C4F41442046493E
:1002E0004C414D454E54004C4F41442046494C41F1
:1002F0004D454E540046494C414D454E54204348CF
:10030000414E47450053544F505045442E20005015
:1003100072696E7465722073746F707065642064A6
:10032000756520746F206572726F72732E20466936
:100330007820746865206572726F7220616E642027
:10034000757365204D39393920746F207265737467
:100350006172742E202854656D70657261747572B7
:10036000652069732072657365742E20536574204F
:100370006974206166746572207265737461727449
:10038000696E67290A004E6F20436865636B737559
:100390006D2077697468206C696E65206E756D627A
:1003A00065722C204C617374204C696E653A200094
:1003B0004E6F20436865636B73756D207769746851
:1003C000206C696E65206E756D6265722C204C61C3
:1003D0007374204C696E653A2000636865636B73C3
:1003E000756D206D69736D617463682C204C617349
:1003F00074204C696E653A20004C696E65204E751C
:100400006D626572206973206E6F74204C61737425
:10041000204C696E65204E756D6265722B312C2003
:100420004C617374204C696E653A20004D31313057
:100430000053657269616C20737461747573206D0B
:1004400069736D617463680A005344207265616466
:10045000206572726F720A002121204B494C4C209A
:10046000636175736564206279204B494C4C20624E
:100470007574746F6E2F70696E0A002121204B49CC
:100480004C4C2063617573656420627920746F6FD2
:10049000206D75636820696E616374697665207488
:1004A000696D65202D2063757272656E7420636FAF
:1004B0006D6D616E643A2000627573793A207061E7
:1004C0007573656420666F7220696E7075740A00BA
:1004D000627573793A2070617573656420666F7216
:1004E00020757365720A00627573793A2070726FB5
:1004F00063657373696E670A004D656469612052B4
:10050000656D6F766564004D6564696120496E7341
:100510006572746564004D36303000506C656173EF
:1005200065205265736574005052494E54455220FF
:1005300048414C5445440025533A202553004B492B
:100540004C4C45442E20005072696E7465722068D0
:10055000616C7465642E206B696C6C282920636162
:100560006C6C6564210A006563686F3A00457272BD
:100570006F723A0042696C696E656172204C6576F3
:10058000656C696E6720477269643A0A00486F7447
:10059000656E6420746F6F20636F6C640A0053652E
:1005A0006E64204D31303820746F20726573756D24
:1005B000650A00496E736572742066696C616D65C9
:1005C0006E7420616E642073656E64204D31303826
:1005D0000A0053656E64204D31303820746F2068F6
:1005E000656174206E6F7A7A6C650A004732362036
:1005F00043616E63656C656400473236204865610F
:1006000074696E67204E6F7A7A6C650047323620C7
:1006100048656174696E672042656400576169745A
:10062000696E6720666F72206865617475702E0A46
:10063000004669786564204C656E67746820507266
:10064000696D6500446F6E65205072696D696E67F3
:10065000004D616E75616C207072696D696E672EF8
:100660002E2E004C656176696E6720473236003F5A
:1006700053706563696669656420582C5920636FFF
:100680006F7264696E617465206F7574206F662087
:10069000626F756E64732E0A003F2852296570657B
:1006A00061742076616C7565206E6F7420706C616A
:1006B000757369626C653B206D757374206265208B
:1006C0006174206C6561737420312E0A003F537091
:1006D00065636966696564206E6F7A7A6C652074FB
:1006E000656D7065726174757265206E6F742070CF
:1006F0006C61757369626C652E0A003F53706563A7
:1007000069666965642066696C616D656E742073E5
:10071000697A65206E6F7420706C61757369626CA4
:10072000652E0A003F5370656369666965642070D1
:1007300072696D65206C656E677468206E6F7420D9
:10074000706C61757369626C652E0A003F53706549
:10075000636966696564206E6F7A7A6C6520736977
:100760007A65206E6F7420706C61757369626C6558
:100770002E0A003F52657472616374696F6E204D7A
:10078000756C7469706C696572206D757374206224
:1007900065207370656369666965642E0A003F535E
:1007A000706563696669656420526574726163741B
:1007B000696F6E204D756C7469706C696572206E1E
:1007C0006F7420706C61757369626C652E0A003FEE
:1007D000537065636966696564206C617965722030
:1007E000686569676874206E6F7420706C617573DA
:1007F00069626C652E0A0043292E0A003F5370651A
:10080000636966696564206265642074656D7065FE
:10081000726174757265206E6F7420706C6175738F
:1008200069626C65202834302D004732362073749D
:10083000617274696E672E2E2E0A004772696420F9
:1008400070726F62696E6720646F6E652E0A006950
:10085000646C650A00206F662000706F696E7420FA
:10086000004D616E75616C2047323920004D616E1C
:1008700075616C204732392061626F727465640A59
:1008800000202844525952554E2900473239204100
:1008900075746F20426564204C6576656C696E677F
:1008A000003F20284C2C522C462C4229206F757476
:1008B000206F6620626F756E64732E0A003F2856A3
:1008C000296572626F7365206C6576656C20696D51
:1008D000706C61757369626C652028302D34292E27
:1008E0000A00426164205A2076616C75650A004EE8
:1008F0006F2062696C696E65617220677269640A53
:100900000020440020204D32303020530020284465
:10091000697361626C6564293A0046696C616D6552
:100920006E742073657474696E67730020204D3295
:1009300030312058004D617820416363656C6572E9
:100940006174696F6E2028756E6974732F73322914
:100950000020204D3230332058004D6178206665EC
:10096000656472617465732028756E6974732F7382
:10097000290020520020204D3230342050004163A5
:1009800063656C65726174696F6E2028756E697439
:10099000732F7332292028503C7072696E742D6158
:1009A0006363656C3E20523C726574726163742DA2
:1009B000616363656C3E20543C74726176656C2D96
:1009C000616363656C3E2900204A00205400205377
:1009D0000020204D323035204200416476616E6344
:1009E00065642028423C6D696E5F7365676D656E56
:1009F000745F74696D655F75733E20533C6D696EFD
:100A00005F66656564726174653E20543C6D696E15
:100A10005F74726176656C5F66656564726174654A
:100A20003E204A3C6A756E635F6465763E2900200D
:100A3000440020490020204D333031205000486FC1
:100A400074656E642050494400203B00205500200E
:100A5000204D363033204C0046696C616D656E74F4
:100A6000206C6F61642F756E6C6F6164003B2000B9
:100A700020496E76616C696420657874727564656E
:100A800072200047322F4733206261642070617208
:100A9000616D65746572730A00536C6565702E2E06
:100AA0002E004D65736820706F696E74206F7574C9
:100AB000206F662072616E67650A00436C69636B24
:100AC00020746F20526573756D652E2E2E004E6F4B
:100AD000204D6F76652E00456E642066696C65203A
:100AE0006C6973740A00426567696E2066696C659B
:100AF000206C6973740A004E6F206D656469610A29
:100B000000286E6F2066696C6529004375727265F6
:100B10006E742066696C653A2000534420707269D7
:100B20006E74696E67206279746520004E6F742060
:100B30005344207072696E74696E670A002E0A0051
:100B400044656C6574696F6E206661696C65642CC0
:100B50002046696C653A200046696C652064656CC6
:100B6000657465643A002569730025696D202569FF
:100B700073002569682025696D2025697300256942
:100B800064202569682025696D2025697300256921
:100B90007920256964202569682025696D202569EB
:100BA00073005072696E742074696D653A20006F2D
:100BB0006B006F666600D202CD02C602BF02B102B0
:100BC00044454255473A004D31313320530043529A
:100BD0002D313053204F46462E00434F4E46494755
:100BE0005F4558504F5254004D4541545041434B7E
:100BF00000434F4F4C45525F54454D504552415470
:100C0000555245004348414D4245525F54454D5071
:100C10004552415455524500424142595354455062
:100C200050494E470041524353004D4F54494F4E97
:100C30005F4D4F44455300544845524D414C5F5021
:100C4000524F54454354494F4E00455854454E4425
:100C500045445F4D3230004C4F4E475F46494C454E
:100C60004E414D45004155544F5245504F52545FEF
:100C700053445F5354415455530053445F575249B2
:100C80005445005245504541540053444341524459
:100C90000050524F4D50545F535550504F525400D6
:100CA000484F53545F414354494F4E5F434F4D4D5E
:100CB000414E445300454D455247454E43595F50C0
:100CC000415253455200434153455F4C49474854B4
:100CD0005F4252494748544E45535300544F47478B
:100CE0004C455F4C494748545300534F4654574175
:100CF00052455F504F574552004255494C445F5052
:100D0000455243454E54004C4556454C494E475F6D
:100D100044415441005A5F50524F42450052554E93
:100D20004F5554004155544F4C4556454C00505278
:100D3000494E545F4A4F420050524F475245535319
:100D4000004155544F5245504F52545F54454D50F9
:100D5000004155544F5245504F52545F504F53002D
:100D6000564F4C554D455452494300454550524FFE
:100D70004D0042494E4152595F46494C455F5452DD
:100D8000414E534645520053455249414C5F584FDE
:100D90004E5F584F4646004649524D574152455FB7
:100DA0004E414D453A4D61726C696E20322E302EA7
:100DB000392E3320284170722020332032303232D5
:100DC0002031393A31343A35382920534F5552437E
:100DD000455F434F44455F55524C3A6769746875A7
:100DE000622E636F6D2F4D61726C696E4669726D14
:100DF000776172652F4D61726C696E2050524F544D
:100E00004F434F4C5F56455253494F4E3A312E3067
:100E1000204D414348494E455F545950453A43524D
:100E20002D3130532045585452554445525F434F5D
:100E3000554E543A3120555549443A6365646532FC
:100E40006132662D343161322D343734382D3962B8
:100E500031322D6335356336326633363766660A8E
:100E6000002F2F004D31343520533C696E64657876
:100E70003E206F7574206F662072616E6765202852
:100E8000302D31290A003F4A206F7574206F66208B
:100E900072616E67652028302E303120746F2030EB
:100EA0002E33290A0020580020204D61783A200076
:100EB000200020204D696E3A2000203B2000202099
:100EC0004D323131205300536F667420656E647368
:100ED000746F70730046523A0020466C6F773A2068
:100EE0000064697300656E0043290A0061626C65E5
:100EF0006420286D696E2074656D702000436F6CEE
:100F00006420657874727564657320617265200071
:100F10004F4646004F4E0046696C616D656E742009
:100F200072756E6F757420004F46460A0046616404
:100F300065204865696768742000426564204C65D7
:100F400076656C696E6720004661696C6564207423
:100F50006F20656E61626C6520426564204C657629
:100F6000656C696E670A00496E76616C6964206D14
:100F70006573682E0A004D34323120696E636F72DA
:100F80007265637420706172616D6574657220753D
:100F9000736167650A004D65736820706F696E74D0
:100FA000206F7574206F662072616E67650A004F4E
:100FB000666673657473204170706C696564004582
:100FC00072723A20546F6F206661722100546F6F05
:100FD000206661722066726F6D207265666572654B
:100FE0006E636520706F696E740A00454550524FFC
:100FF0004D204F4B0A004D383400446F6E65207011
:1010000072696E74696E672066696C650A004D3797
:1010100037004D33310020204D3230362058004803
:101020006F6D65206F666673657400446966663A25
:101030002020200046726F6D5374703A005374651F
:10104000707065723A00556E4C6576656C3A004C6E
:101050006576656C65643A005261773A20202020FD
:10106000000A4C6F676963616C3A00436F756E7478
:1010700020453A004361703A00436F6F6C696E67B8
:101080002E2E2E0048656174696E672E2E2E004547
:10109000312025530042656420436F6F6C696E6791
:1010A0002E2E2E004265642048656174696E672E9D
:1010B0002E2E0023646566696E65204445464155C1
:1010C0004C545F004B6420004B6920004B702000A3
:1010D000504944204175746F74756E652066696E61
:1010E0006973686564212050757420746865206C8C
:1010F000617374204B702C204B6920616E64204B0F
:101100006420636F6E7374616E74732066726F6DAA
:101110002062656C6F7720696E746F20436F6E6616
:10112000696775726174696F6E2E680A0050494470
:10113000204175746F74756E65206661696C6564B5
:10114000212074696D656F75740A0050494420410F
:1011500075746F74756E65206661696C65642120B5
:1011600054656D706572617475726520746F6F205F
:10117000686967680A00504944204379636C657365
:101180000025532025692F256900204B643A200053
:10119000204B693A2000204B703A200020436C61BC
:1011A0007373696320504944200A002054753A2023
:1011B00000204B753A2000206D61783A2000206DA8
:1011C000696E3A200020643A200020626961733A17
:1011D00020005761697420666F7220686561742011
:1011E00075702E2E2E00504944204175746F747511
:1011F0006E652073746172740A0050494420417511
:10120000746F74756E65206661696C656421205425
:10121000656D706572617475726520746F6F20689A
:101220006967680A00504944204175746F74756E8F
:101230006500504944204175746F74756E65206671
:1012400061696C6564212042616420686561746530
:10125000722069640A004572723A207574663820FB
:10126000666F6E74206E6F7420696E697469616C4C
:10127000697A65642E004572723A2075746638206A
:10128000666F6E74206E6F7420696E697469616C2C
:10129000697A65642E004572723A2075746638204A
:1012A000666F6E74206E6F7420696E697469616C0C
:1012B000697A65642E0042656400456E636C6F73E5
:1012C000757265002568753A2530326875002530DD
:1012D0003268753A253032687500253032687527D6
:1012E000253032687500202020202020200020207A
:1012F000202000657272001FE020102010201010C6
:101300002010202010201030300840048003001FDF
:10131000E03FF03FF03FF01FE01FE03FF03FF03FC5
:10132000F00FC0078003003FFFF038007030FC3042
:1013300020FC102078102030102C00D02E31D02F1F
:101340007BD02F7BD02E31D02C00D02030102078B5
:101350001020FC1030FC303800703FFFF03FFFF0F1
:101360003800703186302387102787902F87D02F41
:1013700003D02030102078102078102030102F0358
:10138000D02F87D027879023871031863038007080
:101390003FFFF01FFFF81FFFF80410400208200273
:1013A000082004104008208010410010410008204F
:1013B000800410400000001FFFF81FFFF83DF002FE
:1013C00038F04488064510808802450080F00244C9
:1013D0008080A3F244608090024410809002441008
:1013E000448802451039CC0739E0000000000000B5
:1013F0003870E000004489100000048910000018D3
:10140000891000000489100000048910000004897C
:1014100010000044891000003870E0005072696EBE
:10142000742041626F72746564004D323520500A39
:101430004D32340050617573696E672E2E2E004D4B
:10144000323400454550524F4D2056657273696FD6
:101450006E204572726F7200454550524F4D2049C3
:101460006E646578204572726F7200454550524F28
:101470004D20435243204572726F72003F0049670E
:101480006E6F726500526573657400496E697469A8
:10149000616C697A6520454550524F4D004C6F6133
:1014A00064206D6D00556E6C6F6164206D6D00463B
:1014B000696C2E204469612E004520696E206D6D97
:1014C0005E330020082046616374002008204D61CF
:1014D00078002008204D696E004F6666004F6E0050
:1014E0004175746F74656D70004D696E2054726142
:1014F00076656C2056656C004D696E2056656C6F84
:1015000063697479004D617820452056656C004D03
:101510006178205A2056656C004D6178205920561C
:10152000656C004D617820582056656C004D6178DF
:10153000204520416363656C004D6178205A20414D
:101540006363656C004D6178205920416363656C6D
:10155000004D6178205820416363656C00547261CE
:1015600076656C20416363656C00526574726163DB
:101570007420416363656C00416363656C004520C2
:1015800073746570732F6D6D005A2053746570739A
:101590002F6D6D00592053746570732F6D6D005859
:1015A0002053746570732F6D6D00416476616E63B6
:1015B00065642053657474696E6773003F0043610E
:1015C0006E63656C00496E6974004D3432380049B1
:1015D0006E697469616C697A6520454550524F4D5A
:1015E0000046696C616D656E740054656D7065725E
:1015F00061747572650053746570732F6D6D004A68
:10160000756E6374696F6E2044657600416363652F
:101610006C65726174696F6E0056656C6F63697496
:10162000790053657420486F6D65204F6666736559
:10163000747300436F6E66696775726174696F6E6B
:10164000003F004E65787420436F726E65720044EF
:101650006F6E65004E657874004C6576656C696EDA
:101660006720446F6E6521004D6F7665205A0047F4
:1016700032395631004E65787420506F696E7400AF
:101680002569202F20257500473239563100436CDB
:1016900069636B20746F20426567696E00486F6DE7
:1016A000696E672058595A0053746F7265205365EC
:1016B0007474696E6773004C6F6164205365747451
:1016C000696E677300426564205472616D6D696E66
:1016D00067004661646520486569676874004F6605
:1016E00066004F6E00426564204C6576656C696EDD
:1016F00067004C6576656C20426564004D6F7469C7
:101700006F6E00426564004E6F7A7A6C65004661C8
:101710006E20537065656400436F6E66696775720D
:101720006174696F6E00526573746F7265204465F1
:101730006661756C7473004C6F61642053657474DA
:10174000696E67730053746F7265205365747469B2
:101750006E67730050726568656174202420436F62
:101760006E66004F6666004F6E0052756E6F757440
:101770002053656E736F7200416476616E636564B9
:101780002053657474696E6773004D61696E004D16
:1017900037303220542564004D363030204230201E
:1017A000542564004D373032203B2564004D3730DE
:1017B0003120542564004368616E67652046696C7A
:1017C000616D656E74005072656865617420437563
:1017D00073746F6D005072656865617420240042F7
:1017E00061636B004D363030423000436F6E746978
:1017F0006E7565004F6666004F6E0052756E6F75B0
:10180000742053656E736F72005075726765206D3A
:101810006F726500524553554D45204F5054494F06
:101820004E533A005052494E54205041555345446E
:101830000020204E6F7A7A6C653A2000000C0F0071
:10184000FE07022503BB017FFE08FE08FE0508080F
:1018500006000040F0C8888898781005080806003F
:1018600000C0F88888888888F805050506000120EA
:1018700030F830200508080600002070F8202020ED
:1018800020E00509090600FF2070A8A8B888887024
:1018900020070505070001D86C366CD80509090634
:1018A00000FFF8A88888888888A8F8050A0A060032
:1018B000FE205050505088A8A888700303030600EB
:1018C0000340A040FFFFFFFFFFFFFFFFFFFFFFFF01
:1018D000FFFFFFFFFFFFFFFFFFFF0000000605FF08
:1018E00001070706020080808080800080030303D8
:1018F000060105A0A0A005060606000050F85050FD
:10190000F8500509090600FF2070A8A07028A870EB
:1019100020050707060000C8C81020409898050752
:101920000706000040A0A040A8906801030306023B
:10193000058080800309090601FF204040808080E7
:101940004040200309090601FF804040202020403C
:10195000408005070706000020A8702070A8200519
:1019600005050600012020F820200203030601FFE0
:10197000C04080050101060003F8020202060100D2
:10198000C0C0050707060000081010204040800571
:101990000707060000708898A8C888700307070624
:1019A000010040C040404040E005070706000070CD
:1019B0008808102040F8050707060000F8081030D6
:1019C00008887005070706000010305090F81010C6
:1019D000050707060000F880F0080888700507076B
:1019E000060000304080F088887005070706000078
:1019F000F8081010202020050707060000708888CE
:101A000070888870050707060000708888780810BD
:101A100060020505060100C0C000C0C0020606063F
:101A200001FFC0C000C04080030505060101204041
:101A3000804020050303060002F800F803050506B0
:101A400001018040204080050707060000708810D3
:101A5000202000200507070600007088B8A8B8807D
:101A600070050707060000708888F88888880507D1
:101A700007060000F04848704848F00507070600D0
:101A80000070888080808870050707060000F04895
:101A900048484848F0050707060000F88080F080B5
:101AA00080F8050707060000F88080F08080800538
:101AB0000707060000708880809888700507070671
:101AC0000000888888F8888888030707060100E0F6
:101AD0004040404040E00507070600003810101065
:101AE0001090600507070600008890A0C0A09088AD
:101AF000050707060000808080808080F8050707C2
:101B000006000088D8A8888888880507070600008E
:101B10008888C8A898888805070706000070888804
:101B200088888870050707060000F08888F08080A4
:101B30008005070706000070888888A89068050758
:101B400007060000F08888F0A090880507070600C7
:101B50000070888070088870050707060000F8206C
:101B60002020202020050707060000888888888814
:101B7000887005070706000088888888505020056F
:101B8000070706000088888888A8A8500507070668
:101B900000008888502050888805070706000088C4
:101BA000885020202020050707060000F808102094
:101BB0004080F80309090601FFE080808080808072
:101BC00080E0050707060000804040201010080351
:101BD00009090601FFE020202020202020E0050345
:101BE000030600052050880501010600FEF80303E6
:101BF00003060105804020050505060000700878F1
:101C000088780507070600008080F0888888F0053E
:101C10000505060000708080887005070706000033
:101C2000080878888888780505050600007088F01F
:101C30008070050707060000304840E0404040053E
:101C400007070600FE708888887808700507070671
:101C500000008080F088888888030707060100401C
:101C600000C0404040E00409090601FE10003010A9
:101C7000101010906005070706000080808890E033
:101C80009088030707060100C04040404040E0053F
:101C90000505060000D0A8A8A8A8050505060000AF
:101CA000B0C8888888050505060000708888887097
:101CB0000507070600FEF0888888F0808005070782
:101CC0000600FE7888888878080805050506000063
:101CD000B0C880808005050506000078807008F097
:101CE0000507070600002020F8202020180505051C
:101CF0000600008888889868050505060000888821
:101D00008850200505050600008888A8A85005050C
:101D10000506000088502050880507070600FE8849
:101D2000888850204080050505060000F8102040F6
:101D3000F80309090601FF20404040804040402050
:101D40000109090602FF80808080808080808003F6
:101D500009090601FF8040404020404040800503C3
:101D60000306000248A890FF41425300504C410036
:101D70005061726B696E672E2E2E000000576169EC
:101D80007420666F720066696C616D656E742063A5
:101D900068616E676500746F2073746172740057B8
:101DA00061697420666F720066696C616D656E743E
:101DB00020756E6C6F616400004E6F7A7A6C6520DE
:101DC00068656174696E6700506C65617365207742
:101DD0006169742E2E2E0000507265737320627537
:101DE00074746F6E00746F2068656174206E6F7A12
:101DF0007A6C650000496E736572742066696C6167
:101E00006D656E7400616E6420707265737320621C
:101E10007574746F6E00746F20636F6E74696E7585
:101E200065005761697420666F720066696C616D48
:101E3000656E74206C6F616400005072657373206E
:101E4000427574746F6E00746F20726573756D6582
:101E5000207072696E7400005761697420666F7239
:101E6000207072696E7400746F20726573756D6591
:101E70002E2E2E00005761697420666F720066690D
:101E80006C616D656E74207075726765000031322B
:101E9000300035004245443A204550434F532031ED
:101EA00030304B0052756E617761792057617463F1
:101EB000683A204F4E004D61782054656D700032B5
:101EC0003530004D696E2054656D70003500453128
:101ED0003A204550434F53203130304B005053553A
:101EE0000047656E657269630050726F746F636F4F
:101EF0006C00312E30004261756400313135323072
:101F00003000437265616C69747933442052414DED
:101F100050530042696C696E656172204C6576654C
:101F20006C696E6700457874727564657273003110
:101F3000006D61726C696E66772E6F726700435236
:101F40002D31305300323032312D31322D323500C7
:101F5000322E302E392E33004D61726C696E005472
:101F60006865726D6973746F727300426F61726439
:101F700020496E666F005072696E74657220496EFA
:101F8000666F004D61696E003F004261636B0053F4
:101F9000746F70003F004E4F00594553004E6F2044
:101FA0004D65646961005072696E742066726F6D70
:101FB000204D65646961004368616E6765204D6509
:101FC000646961004D32310041626F757420507256
:101FD000696E746572004368616E67652046696C5E
:101FE000616D656E7400436F6E66696775726174CA
:101FF000696F6E0054656D7065726174757265000D
:102000004D6F74696F6E00526573756D6520507207
:10201000696E740054756E650053746F7020507251
:10202000696E74005061757365205072696E74003A
:10203000496E666F2053637265656E003F0053748E
:10204000617274205072696E740043616E63656CD6
:10205000005072696E740043616E6E6F7420656E1D
:10206000746572207375626469723A200002202ED2
:102070002E004D61696E002100486F74656E64200A
:10208000746F6F20636F6C64004261636B00507209
:102090006F63656564004D6F74696F6E00446973AA
:1020A00061626C65205374657070657273004D38A1
:1020B0003400426564204C6576656C696E6700414A
:1020C00075746F20486F6D6500473238004D616947
:1020D0006E0050726568656174202420426564005A
:1020E00050726568656174202420456E64005465F3
:1020F0006D7065726174757265006C1D681D436F4B
:102100006F6C646F776E005072656865617420242F
:102110000046616E20537065656400426564004E40
:102120006F7A7A6C65004D61696E00426162797305
:10213000746570205A00466C6F770046616E2053BC
:102140007065656400426564004E6F7A7A6C650064
:102150005370656564004D61696E00486F6D696E0E
:1021600067204661696C6564006F70656E0054524B
:1021700049474745524544003A200066696C616D05
:10218000656E74007A5F6D696E00795F6D696E00CF
:10219000785F6D696E005265706F7274696E67204A
:1021A000656E6473746F70207374617475730A0064
:1021B00020746F6F206C6F6E672065787472757312
:1021C000696F6E2070726576656E7465640A0020B2
:1021D000636F6C6420657874727573696F6E2070BC
:1021E000726576656E7465640A00000080400000C8
:1021F0000040000000005761726E696E673A204827
:102200006F6D696E672042756D70204469766973E1
:102210006F72203C20310A0002020400809D4300BE
:102220000098430000C8430000A0400000A0400008
:1022300000004000809F43000099430000C8430015
:102240000080400000004000000000536574746985
:102250006E67732053746F72656400290A002062F0
:10226000797465733B2063726320005365747469ED
:102270006E67732053746F72656420280048617222
:1022800064636F6465642044656661756C74205393
:10229000657474696E6773204C6F616465640A00CD
:1022A00020286D6D2900203B204C6576656C696E99
:1022B00067200020204D3432302053004175746F68
:1022C00020426564204C6576656C696E6700204627
:1022D0000020480020204D3134352053004D6174DA
:1022E000657269616C2068656174757020706172D7
:1022F000616D657465727300203B2053656E736F6A
:1023000072200020204D34313220530046696C6128
:102310006D656E742072756E6F75742073656E7363
:102320006F7200204A002020473239205720490090
:1023300020204D3134392043203B20556E69747381
:1023400020696E2043656C736975730A0054656D6E
:10235000706572617475726520556E6974730020C2
:1023600020473231203B004C696E65617220556E0A
:1023700069747300454550524F4D20646174617318
:10238000697A65206572726F722E0A00290A002030
:1023900062797465733B2063726320002073746FED
:1023A0007265642073657474696E677320726574F6
:1023B000726965766564202800202863616C637506
:1023C0006C6174656429210A0020213D2000454587
:1023D00050524F4D20435243206D69736D617463B9
:1023E00068202D202873746F7265642920002053A3
:1023F000697A653A2000496E6465783A20000040A9
:102400001C4500401C450000C8420000C8410000B7
:10241000A0420000A0420000C8430000BE42F401F8
:102420000000F40100006400000088130000204D4B
:1024300061726C696E3D563836290A004545505226
:102440004F4D2076657273696F6E206D69736D6193
:102450007463682028454550524F4D3D0024F4D404
:102460003050C38E20C2A24017828B7011127A9115
:102470000D816CD90AA861E108C75866076151430C
:10248000061E4B5D05C145A7041A411104093D987C
:1024900003713931034036DB0265339102D4305485
:1024A00002802E1D02632CEE01752AC501B028A002
:1024B00001102781018F2564012B244B01E0223478
:1024C00001AC211F018D200D01801FFC00841EED39
:1024D00000971DDF00B81CD200E61BC600201BBC05
:1024E00000641AB200B219A8000A19A0006A18996B
:1024F00000D117910040178B00B516840031167E6D
:1025000000B31579003A157300C7146F0058146AA8
:1025100000EE1366008813630025135E00C7125B8C
:10252000006C12570015125400C111510070114F68
:102530000021114B00D61049008D10470046104471
:102540000002104200C00F4000800F3E00420F3CCE
:1025500000060F3B00CB0E3800930E37005C0E35A3
:1025600000270E3400F30D3200C10D3100900D3004
:1025700000600D2E00320D2D00050D2C00D90C2B06
:1025800000AE0C2900850C29005C0C2700350C27B7
:10259000000E0C2600E80B2400C40B2400A00B2323
:1025A000007D0B23005A0B2100390B2100180B2052
:1025B00000F80A1F00D90A1E00BB0A1E009D0A1D52
:1025C00000800A1D00630A1C00470A1B002C0A1B1E
:1025D00000110A1A00F7091A00DD091900C40919C7
:1025E00000AB091900920917007B0918006309174D
:1025F000004C09160036091600200916000A0915B4
:1026000000F5081500E0081400CC081400B8081400
:1026100000A4081400900813007D0812006B081332
:10262000005808120046081200340811002308114F
:10263000001208110001081100F0071000E0071057
:1026400000D0071000C0071000B0070F00A107104E
:102650000091070E0083070F0074070F0065070E37
:102660000057070E0049070E003B070D002E070E0E
:102670000020070D0013070D0006070D00F9060CDA
:1026800000ED060D00E0060C00D4060C00C8060C98
:1026900000BC060C00B0060C00A4060B0099060C4A
:1026A000008D060B0082060B0077060B006C060BF4
:1026B0000061060A0057060B004C060A0042060A93
:1026C0000038060A002E060A0024060A001A060A26
:1026D000001006090007060A00FD050900F40509B7
:1026E00000EB050900E2050900D9050900D005093C
:1026F00000C7050900BE050900B5050800AD0508BD
:1027000000A50509009C050800940508008C050833
:1027100000840508007C050800740508006C0507A6
:1027200000650508005D050700560508004E050711
:102730000047050700400508003805070031050778
:10274000002A050700230507001C050600160507DB
:10275000000F0507000805060002050700FB040638
:1027600000F5040700EE040600E8040600E2040792
:1027700000DB040600D5040600CF040600C90406E9
:1027800000C3040600BD040600B7040600B104053A
:1027900000AC040600A6040600A00405009B040685
:1027A0000095040500900406008A040500850405D0
:1027B00000800406007A0405007504050070040515
:1027C000006B04050066040500610405005C040557
:1027D0000057040500520405004D04050048040597
:1027E00000430405003E0404003A040500350405D6
:1027F00000300404002C0405002704040023040511
:10280000001E0404001A0404001604050011040448
:10281000000D04040009040500040404000004047D
:1028200000FC030400F8030400F4030400F00304B4
:1028300000EC030400E8030400E4030400E00304E4
:1028400000DC030400D8030400D4030400D0030414
:1028500000CC030400C8030300C503030024F404F0
:10286000D9201BC40C5C0E9804C4095F0265077173
:1028700001F405F900FB04B30048048700C10369B3
:10288000005803550003034500BE023A008402319C
:102890000053022A002902250004022000E4011C42
:1028A00000C8011900AF011700980114008401133A
:1028B00000710110006101100051010E0043010D73
:1028C0000036010B002B010B0020010B0015010944
:1028D000000C01090003010800FB000800F30008D8
:1028E00000EB000700E4000600DE000600D800064A
:1028F00000D2000600CC000500C7000500C200059C
:1029000000BD000400B9000400B5000400B10004DB
:1029100000AD000400A9000400A5000300A200030C
:10292000009F0004009B0003009800030095000234
:102930000093000300900003008D0002008B000351
:10294000008800020086000200840003008100026B
:10295000007F0002007D0002007B0002007900027F
:10296000007700010076000200740002007200018E
:1029700000710002006F0002006D0001006C000297
:10298000006A0001006900020067000100660001A2
:1029900000650001006400020062000100610001A6
:1029A00000600001005F0002005D0001005C0001AA
:1029B000005B0001005A00010059000100580001AD
:1029C00000570001005600010055000100540001AD
:1029D00000530000005300010052000100510001AB
:1029E00000500001004F0001004E0000004E0001A9
:1029F000004D0001004C0001004B0000004B0001A5
:102A0000004A0001004900010048000000480001A0
:102A1000004700010046000000460001004500009C
:102A20000045000100440001004300000043000194
:102A3000004200000042000100410000004100018E
:102A400000400001003F0000003F0001003E000088
:102A5000003E0001003D0000003D0001003C000080
:102A6000003C0000003C0001003B0000003B000176
:102A7000003A0000003A000100390000003900016E
:102A80000038000000380000003800010037000066
:102A9000003700010036000000360000003600015B
:102AA0000035000000350000003500010034000052
:102AB0000034000000340001003300000033000047
:102AC000003300010032000000320000003200013B
:102AD0000031000000310000003100010030000032
:102AE0000030000000300001002F0000002F000027
:102AF000002F0000002F0001002E0000002E00001B
:102B0000002E0001002D0000002D0000002D00000F
:102B1000002D0001002C0000002C0000002C000003
:102B2000002C0001002B0000002B0000002B0000F7
:102B3000002B0001002A0000002A0000002A0000EB
:102B4000002A0001002900000029000000290000DF
:102B500000290000002900010028000000280000D2
:102B600000280000002800000028000100270000C5
:102B700000270000002700000027000000270001B8
:102B800000260000002600000026000000260000AD
:102B9000002600010025000000250000002500009F
:102BA0000025000000250000002500010024000091
:102BB0000024000000240000002400000024000184
:102BC0000023000000230000002300000023000079
:102BD0000023000000230000002300010022000069
:102BE000002200000022000000220000002200005D
:102BF000002200010021000000210000002100004F
:102C0000002100000021000000210000002100013F
:102C10000020000000200000002000000020000034
:102C20000020000000200000002000000020000123
:102C3000001F0000001F0000001F0000001F000018
:102C4000001F0000001F0000001F0001001E000008
:102C5000001E0000001E0000001E000000043700DF
:102C6000001E290000511B00005810000010090030
:102C700000CC040000780200004101000020436FF6
:102C8000756E7420583A0042656400453100450075
:102C9000626564002C2073797374656D2073746FA2
:102CA0007070656421204865617465725F49443ABB
:102CB000200048656174696E67204661696C6564CF
:102CC0000048656174696E67206661696C656400BF
:102CD0004D3131322053687574646F776E004572E0
:102CE000723A204D415854454D50004D415854457D
:102CF0004D50207472696767657265640045727231
:102D00003A204D494E54454D50004D494E54454D85
:102D10005020747269676765726564005448455253
:102D20004D414C2052554E415741590054686572EF
:102D30006D616C2052756E6177617900202F0020E3
:102D400042403A0020403A0020573A0020573A00CB
:102D5000496E76616C696420657874727564657219
:102D60000A007C3C3E5E2B3D3F2F5B5D3B2C2A22C4
:102D70005C0043616E6E6F74206F70656E207375BA
:102D80006264697220004D6564696120496E6974EE
:102D9000204661696C0053442063617264206F6B4C
:102DA0000A006F70656E526F6F74206661696C65A2
:102DB000640A00766F6C756D652E696E69742066A5
:102DC00061696C65640A004E6F2053442063617230
:102DD000640A000A4D3234004D3233202573002E30
:102DE0000A006F70656E206661696C65642C204610
:102DF000696C653A200046696C652073656C656393
:102E00007465640A002053697A653A200046696C4B
:102E100065206F70656E65643A2000454E4420530E
:102E20005542524F5554494E450A002220706F7347
:102E3000002220706172656E743A2200535542522E
:102E40004F5554494E452043414C4C2074617267A4
:102E500065743A220053756263616C6C204F76652D
:102E600072666C6F77004578636565646564206D94
:102E7000617820535542524F5554494E4520646560
:102E80007074683A0057726974696E6720746F20B5
:102E900066696C653A2000667265736800646F69E4
:102EA0006E67002066696C653A20004E6F772000DF
:102EB0002F6175746F25632E67000200000000000B
:102EC0000000600000000000FC00000FF0000000A7
:102ED0000007E00000000001861FC018700000001D
:102EE0000000603C0C000001830C6010300000000A
:102EF0000000603C0C000001830C3030300000000A
:102F0000000060000C000000030C183000000000FE
:102F1000000060003F0F3C00030C0C6001DF0FE07D
:102F2000FE00601C1C061800060C0C6000F3183133
:102F30008300600C0C0318001E0C0C6000E030399C
:102F40008300600C0C033000030C0C6000C03038B0
:102F50000F00600C0C033000018C0C6000C03FF8C7
:102F6000FB00600C0C033000018C0C6030C03001A1
:102F70008300600C0C01F001818C0C6030C03001CA
:102F80008300600C0C00E001818C183030C01831D7
:102F90008300600C0C40E001838C301860C00C6131
:102FA00087C0E01C0CC06000C30C600FC3F007C0FA
:102FB000FFC7FC7F0781C0007E1FC000000000002B
:102FC00000000000000700000000000000000000FA
:102FD00000000000000700000000006D61726C69D5
:102FE0006E66772E6F726700322E302E392E3300C8
:102FF0001FFFFFFFFFFFFF600000000001FF400018
:1030000000000000FF8000000000007F83CF000070
:103010000C303F87FF80000C301F867980000C0049
:103020000F8C30C7838C30E78C30CFC7CC31F38C1A
:1030300030DCECEC33B98C30D86C6C33198C30D07C
:103040006C0C33198C30D86C0C33198C30DC6C0E52
:103050003B198C30CF7C079F198C30C77C038F19AC
:1030600040000000000002600000000000061FFF9A
:10307000FFFFFFFFF870012C0190012701B0012232
:1030800001C0011D01F00118011002130130020EF0
:10309000016002090190020401C002FF000003FA6E
:1030A000004003F5008003F000D003EB002004E6AD
:1030B000007004E100E004DC004005D700C005D248
:1030C000004006CD00D006C8008007C3003008BE0F
:1030D00000F008B900C009B400B00AAF00B00BAAF4
:1030E00000D00CA500000EA000500F9B00C0109651
:1030F000005012910000148C00C0158700B0178298
:1031000000B0197D00D01B7800001E730040206EB7
:103110000090226900F024640040275F0090295A43
:1031200000E02B5500102E500020304B001032468E
:1031300000E033410090353C0010373700703832E2
:1031400000A0392D00B03A2800A03B2300603C1EAF
:1031500000103D1900903D1400103E0F00703E0A13
:1031600000C03E0500003F0000403FFBFF803FF6EF
:10317000FFC03FF1FF2020506C616E6E657242759A
:103180006666657242797465733A200020467265FE
:1031900065204D656D6F72793A200020436F6D7028
:1031A000696C65643A2041707220203320323032DD
:1031B000320A00204C617374205570646174656438
:1031C0003A20323032312D31322D3235207C2041BF
:1031D0007574686F723A20287072696E74656473D2
:1031E0006F6C69642E636F6D2C2043522D31305308
:1031F000290A004D61726C696E20322E302E392EF4
:10320000330A0020536F66747761726520526573CC
:1032100065740A00205761746368646F67205265A3
:103220007365740A002042726F776E206F75742088
:1032300052657365740A002045787465726E616C1E
:103240002052657365740A00506F77657255700A75
:103250000073746172740A00473237004D313030A8
:1032600031006572726F722077726974696E6720BF
:10327000746F2066696C650A00446F6E6520736127
:1032800076696E672066696C652E0A004D323900DA
:10329000456E6473746F7073002553202563202579
:1032A0006320256320256300205A3A0020593A0004
:1032B00020583A00656E6473746F70732068697487
:1032C0003A200000000A0B02090C0D0E0807030447
:1032D00001000000000000000000000000000000ED
:1032E00000000000000000000000000000000012CC
:1032F00011100000000000000000000000000000AD
:10330000000000000000000000004D6F76652025E1
:10331000736D6D004D6F766520302E316D6D004DF3
:103320006F766520316D6D004D6F76652031306DA3
:103330006D004D6F76652041786973004D6F76653D
:10334000204578747275646572004D6F7665205AF9
:10335000004D6F76652059004D6F766520580050FE
:1033600072696E742066726F6D204D6564696100CC
:10337000FFFFFF496E736572742066696C616D654D
:103380006E7420616E642073656E64204D31303838
:103390000A0043522D3130532052656164792E006A
:1033A0005072696E74696E672E2E2E005072696EAF
:1033B000742050617573656400220A00556E6B6E4F
:1033C0006F776E20636F6D6D616E643A202200200E
:1033D00042002050006F6B00204500205A00205909
:1033E0000020204D393220580053746570732070CE
:1033F000657220756E6974004572726F7220777203
:103400006974696E6720746F20454550524F4D2195
:103410000A00DB0FC93F45BCDA3F8FB30240FCF026
:10342000274056946140FE4B9B4084A5D840E02342
:103430001841346A5641E859974164DBD5416E27FB
:103440001742B4B75542CE1A9742C8AED542B58896
:103450005A43D40684BFA65FA7BF7443E0BF10B130
:103460001AC01C2C58C0E8F697C0B849D6C04E4EBA
:1034700017C124D355C1802497C1A0B5D5C1121A54
:1034800017C244AE55C2781797C26CACD5C26788D4
:103490005AC320746F6F206C6F6E672065787472EA
:1034A0007573696F6E2070726576656E7465640AF7
:1034B0000020636F6C6420657874727573696F6E39
:1034C0002070726576656E7465640A00486F6D657C
:1034D0002025732573257320466972737400204577
:1034E0003A00205A3A0020593A00583A006F6B0AC5
:1034F00000526573656E643A2000000022002500CA
:1035000028002B002E0031003400020100000501CC
:1035100008010B0100002100240027002A002D00D3
:103520003000330001010000040107010A01050514
:103530000505070508080808020202020A0A080829
:103540000404040401010101010101010303030357
:1035500003030303040707070C0C0C0C0C0C0C0CE6
:103560000202020206060606060606060B0B0B0BF7
:103570000B0B0B0B0102102020080810204010201C
:103580004080020102010804020101020408102027
:103590004080804020100804020180040201804025
:1035A000201008040201080402010102040810208E
:1035B00040800102040810204080B200A0001124C5
:1035C0001FBECFEFD1E2DEBFCDBF00E00CBF84B79E
:1035D0008093AF1514BE0FB6F894A8958091600043
:1035E000886180936000109260000FBE13E0A0E03D
:1035F000B2E0E8EFF3E602E00BBF02C007900D92E5
:10360000AA3AB107D9F725E1AAEAB3E001C01D92B1
:10361000AF3AB207E1F71AE1CEEDDAE100E006C019
:1036200021970109802FFE010F94902ECD3DD107E7
:1036300080E00807A9F70F94261C0D94EB310C9439
:10364000000081E080937808089582E080937808F4
:103650000895CF93DF93EC01CB01BA010F94CF27EC
:1036600029EC38EC48EC5EE30F94872F20E030E043
:1036700040E05FE30F94AB2E0F94F42F6883DF914B
:10368000CF910895E091720886E0E802F0011124DC
:10369000E45CF74F8091520890E09583848308950D
:1036A000CF93DF93EC01CB01BA010F94CF2768834E
:1036B00079838A839B83DF91CF910895CF93DF93A2
:1036C000EC01CB01BA010F94CF27688379838A83F9
:1036D0009B83DF91CF9108958F929F92AF92BF927B
:1036E000CF92DF92EF92FF92CF936B017C0120E0AB
:1036F00030E0A9010F94C92787FDC3C06DEB77E3C4
:1037000086E095E3A70196010F94AB2E6B017C0137
:1037100020E030E0A9010F94C92787FFB7C0C70197
:10372000B601905820E030E040E251E40F942E289A
:1037300020E030E040E251E40F942E2820E030E019
:1037400040EA50E40F94AB2E20E030E040E251E438
:103750000F94872F0F94EF2F6B017C0160E280EABA
:10376000C81686E8D80681E0E806F1048CF0C701A7
:10377000B60120EA36E841E050E00F94152ECA0168
:10378000B9012AE030E040E050E00F94152E605D72
:103790006093F70560E280E1C81687E2D806E1048D
:1037A000F1048CF0C701B60120E137E240E050E0BF
:1037B0000F94152ECA01B9012AE030E040E050E034
:1037C0000F94152E605D6093F80560E288EEC816D0
:1037D00083E0D806E104F1048CF0C701B60128EEBD
:1037E00033E040E050E00F94152ECA01B9012AE001
:1037F00030E040E050E00F94152E605D6093F905D5
:1038000060E284E6C816D104E104F1048CF0C7013B
:10381000B60124E630E040E050E00F94152ECA01D6
:10382000B9012AE030E040E050E00F94152E605DD1
:103830006093FA058AE0882E912CA12CB12CC70147
:10384000B601A50194010F94152EC62FCA01B90126
:10385000A50194010F94152E605D6093FB058EE227
:103860008093FC05C05DC093FD0587EF95E0CF9187
:10387000FF90EF90DF90CF90BF90AF909F908F9090
:1038800008956DEB77E386E095EB3CCF20E030E0E8
:1038900040E251E4C701B60149CFCF93DF93EC0179
:1038A000CB01BA010F94CF2720E030E040E251E491
:1038B0000F94872F688379838A839B83DF91CF91CD
:1038C00008950F94CF2720E030E040E251E40F94B8
:1038D000872F02CFCF93DF93EC01CB01BA010F9476
:1038E000CF272AE037ED43E25DE30F94872F0F9453
:1038F000F42F688379838A839B83DF91CF91089526
:10390000CF93DF93EC01CB01BA010F94CF272AE0CC
:1039100037ED43E25DE30F94872F688379838A83D1
:103920009B83DF91CF910895CF93DF93EC01CB017F
:10393000BA010F94CF27688379838A839B83DF91B1
:10394000CF910895CF93DF93EC01CB01BA010F948F
:10395000CF2720E030E048EC52E40F94872F6883B3
:1039600079838A839B83DF91CF910895CF93DF93EF
:10397000EC01CB01BA010F94CF270F94EF2F79837D
:103980006883DF91CF910895CF93DF93EC01CB0152
:10399000BA010F94CF2720E030E04AE754E40F94B7
:1039A000872F688379838A839B83DF91CF910895E2
:1039B000FC0184910895FC0180810895FC01A0819F
:1039C000B1811C92A281B3818C918F5F8C93028014
:1039D000F381E02D90818CE0989F800D1124ECEB19
:1039E000F3E113AE84AF0895119800C090910201E5
:1039F00087FD9095917090930001119A00C000C0CE
:103A0000119800C09091020186FD9095917090935D
:103A10000001119A00C000C0119800C090910201ED
:103A200085FD9095917090930001119A00C000C09F
:103A3000119800C09091020184FD9095917090932F
:103A40000001119A00C000C0119800C090910201BD
:103A500083FD9095917090930001119A00C000C071
:103A6000119800C09091020182FD90959170909301
:103A70000001119A00C000C0119800C0909102018D
:103A800081FD9095917090930001119A00C000C043
:103A9000119800C080910201817080930001119AF9
:103AA00000C000C0089590E080E00895CF93DF93B8
:103AB000DB01F9019C919130C1F0943080F0945079
:103AC0009C938830D1F480819181009771F00197A7
:103AD00091838083480F591FEA01188206C08C35F4
:103AE00039F49C5F9C93943041F4DF91CF91089519
:103AF0008B3339F781E08C93F8CF20813181B90184
:103B00006F5F7F4F71836083420F531FEA01888389
:103B1000808191818F3591056CF7E7CF0F931F93CB
:103B200081E000911015109111152091121530911E
:103B3000131540910C1550910D1560910E15709153
:103B40000F15041715072607370708F480E01F91A3
:103B50000F91089590E080E0089520913A05833018
:103B600021F425FD0CC024FD0CC030E0A90102C0E9
:103B7000559547958A95E2F7CA018170089581E0CD
:103B8000089580E008958091550584FD0BC08091D3
:103B9000570587FD07C090915805937081E019F48F
:103BA00080E0089581E00895CF92DF92EF92FF9236
:103BB000CF93DF93EC01CC80DD80EE80FF8029EB9A
:103BC0003CEF4FEF5FE3C701B6010F94D23087FDA2
:103BD00023C023E030E049E953E4C701B6010F9464
:103BE000C9271816CCF0C880D980EA80FB802DE563
:103BF0003EEF4FE750E4C701B6010F94D23087FD86
:103C00000BC0C1E023E030E84FE953E4C701B6013F
:103C10000F94C92718160CF4C0E08C2FDF91CF91B8
:103C2000FF90EF90DF90CF9008952FEB280F2A316F
:103C300008F047C0E22FF0E08091550590915605BD
:103C4000A0915705B091580504C0B695A7959795D2
:103C500087952A95D2F780FD02C081700895E55CB2
:103C6000FA4FE081EE2341F18091CB089091CC088E
:103C7000E80FF92FF11D808190ED980F9A3030F008
:103C80008E3251F4818180538A3098F4F09330055C
:103C9000E0932F0581E008958D3211F08B3249F4C5
:103CA000818190ED980F9A3088F38E3211F48281E1
:103CB000EACFF0E0E0E0EACF1092300510922F0555
:103CC000E9CF80E00895B1DF882341F081E02091C1
:103CD0002F0530913005232B09F480E008952F92B1
:103CE0003F924F925F926F927F928F929F92AF928C
:103CF000BF92CF92DF92EF92FF920F931F93CF93D9
:103D0000DF93CDB7DEB72E970FB6F894DEBF0FBEA8
:103D1000CDBFF82EE62E042F122F282F30E03A8741
:103D20002987862F90E09C878B87220F331FA985D8
:103D3000BA852A0F3B1F3E872D87FC01E20FF31F38
:103D4000EE0FFF1FEE0FFF1FED5DF94F60817181D8
:103D5000828193819B01AC010F945A31882309F42D
:103D600040C1802F8F0D612F6E0D282F30E0F9019B
:103D7000EE0FFF1FE20FF31FAB85BC85AE0FBF1F19
:103D8000AA0FBB1FAA0FBB1FAD5DB94FAC90119618
:103D9000BC9011971296CC9012971396DC90080F56
:103DA000802F90E0AC01440F551F480F591FAB8581
:103DB000BC85A40FB51FAA0FBB1FAA0FBB1FAD5D0B
:103DC000B94FEC901196FC90119712960C911297A6
:103DD00013969C90862F90E0AD85BE85A80FB91FE5
:103DE000AA0FBB1FAA0FBB1FAD5DB94F8C901196D8
:103DF0007C90119712966C90129713965C90610FBD
:103E000070E02D853E85260F371F220F331F220FAE
:103E1000331F2D5D394F3E872D87D9014C90119668
:103E20003C90119712961C91129713962C90E80FC4
:103E3000F91FEE0FFF1FEE0FFF1FED5DF94FB08171
:103E4000B98321812A8332813B8383818C83FA0168
:103E5000E60FF71FEE0FFF1FEE0FFF1FED5DF94F8F
:103E600090819D83A181AE83B281BF832381288706
:103E70009701402F592DB701802F992D0F945A315A
:103E8000882321F0E12CF12C00E0912C9501A60172
:103E9000B501C6010F945A31882319F05701C02E7D
:103EA000D92C242D332D412F522D642D732D812F8C
:103EB000922D0F945A31882321F0412C312C10E09F
:103EC000212C282D372D462D552D682D772D862D0B
:103ED000952D0F945A31882321F0842C732C612E58
:103EE000522C2D813E814F8158856D817E818F813D
:103EF00098850F945A31882321F01D821E821F82DB
:103F0000188629813A814B815C8169817A818B8114
:103F10009C810F945A31882341F03D8139838E81F1
:103F20008A839F819B83A885AC83E985FA85EE0F00
:103F3000FF1F29853A85E20FF31F8B859C85E80FCB
:103F4000F91FEE0FFF1FEE0FFF1FED5DF94FFA8710
:103F5000E9879501A601B501C6010F94AB2E970123
:103F6000402F592D0F94AA2E6B017C01282D372D3F
:103F7000462D552D682D772D862D952D0F94AB2E22
:103F8000242D332D412F522D0F94AA2E9B01AC01CD
:103F9000C701B6010F94AB2E6B017C0129813A81D8
:103FA0004B815C8169817A818B819C810F94AB2EDE
:103FB0002D813E814F8158850F94AA2E9B01AC0123
:103FC000C701B6010F94AB2E20E030E040E450E48E
:103FD0000F94872FA985BA856D937D938D939C93BC
:103FE00013972E960FB6F894DEBF0FBECDBFDF91AC
:103FF000CF911F910F91FF90EF90DF90CF90BF90E6
:10400000AF909F908F907F906F905F904F903F9078
:104010002F9008951092F10585E08093BE040895D5
:10402000269A2E9A0895CF92DF92EF92FF920F94E4
:10403000CF276B017C0120E030E0A9010F94C92754
:104040002DEB37E346E055E387FF04C02DEB37E364
:1040500046E055EBC701B6010F94AB2E6B017C0116
:1040600020E030E0A9010F94C92720E030E040E0D3
:104070005FE387FF04C020E030E040E05FEBC70172
:10408000B6010F94AB2E0F94EF2FCB01FF90EF9062
:10409000DF90CF900C9488CF0F94CF270F94EF2F01
:1040A000CB010C9488CF0F94CF2729EC38EC48EC47
:1040B0005EE30F94872F20E030E040E05FE30F9451
:1040C000AB2E0F94F42F862F0C94BDCFCF92DF929E
:1040D000EF92FF92CF93DF9300D01F92CDB7DEB760
:1040E0006B017C0120E030E0A9010F94C92787FD16
:1040F0001CC06DEB77E386E095E3A70196010F9472
:10410000AB2E69837A838B839C8360E2CE01019618
:104110000E9433CD0F900F900F900F90DF91CF91B1
:10412000FF90EF90DF90CF9008956DEB77E386E0FE
:1041300095EBE3CF0F94CF2720E030E04AE754E43B
:104140000F94872FC3CF80E090E0A0E8B0E4809385
:10415000830290938402A0938502B09386028BEE33
:1041600092E00E94DFC380E090E0A0EFB1E4809392
:104170007B0290937C02A0937D02B0937E02809399
:104180007F0290938002A0938102B0938202E0911B
:10419000EB05EE0FFF0BE553FD4F808191818330DE
:1041A000910549F18430910591F1029761F480E025
:1041B00090E0A5E8B3E480937B0290937C02A09307
:1041C0007D02B0937E0283ED92E00E94DFC31092E5
:1041D00083021092840210928502109286028BEE66
:1041E00092E00E94DFC38091EB058F5F8430E4F49E
:1041F0008093EB05089580E090E0A5E8B3E4809318
:104200007B0290937C02A0937D02B0937E0280E0BB
:1042100090E0A6E8B3E480937F0290938002A0939D
:104220008102B0938202CFCF1092EB05089563E92B
:1042300072E084E690E00E947ADC6AEB72E084E649
:1042400090E00C947ADC8111F2CF68EB71E084E1AC
:1042500090E00C947ADC0E9409B2F5CF0E94E7CB83
:10426000F2CF0E94D1CAE3CFCF93DF9300D01F9249
:10427000CDB7DEB70F94F42F0F94CD2769837A83DF
:104280008B839C83CE0101960E94B0CC0F900F903F
:104290000F900F90DF91CF9108950F94CF272AE0D0
:1042A00037ED43E25DE30F94872FDECFCF92DF92AD
:1042B000EF92FF92CF93DF9300D01F92CDB7DEB77E
:1042C0006B017C0120E030E0A9010F94C92787FD34
:1042D0001BC06DEB77E386E095E3A70196010F9491
:1042E000AB2E69837A838B839C83CE0101960E94D7
:1042F000B0CC0F900F900F900F90DF91CF91FF9067
:10430000EF90DF90CF9008956DEB77E386E095EB2B
:10431000E4CF0F94CF272AE037ED43E25DE30F941B
:10432000872FC4CF0F94CF27C1CFCF92DF92EF92C8
:10433000FF926B017C0120E030E0A9010F94C927B6
:1043400087FD26C06DEB77E386E095E3A701960134
:104350000F94AB2E6B017C0120E030E0A9010F949B
:10436000C92720E030E040E05FE387FF04C020E0A1
:1043700030E040E05FEBC701B6010F94AB2E0F9425
:10438000EF2FCB01FF90EF90DF90CF900C9409CFEF
:104390006DEB77E386E095EBD9CF0F94CF27C5CFB0
:1043A000CF92DF92EF92FF92CF93DF9300D01F92D4
:1043B000CDB7DEB70F94CF2720E030E048EC52E4D1
:1043C0000F94872F6B017C0120E030E0A9010F944E
:1043D000C9272DEB37E346E055E387FF04C02DEBFB
:1043E00037E346E055EBC701B6010F94AB2E698366
:1043F0007A838B839C83CE0101960E94CFCD0F9050
:104400000F900F900F90DF91CF91FF90EF90DF9082
:10441000CF9008950C940EB50C940EB50C940EB577
:104420000C940EB50C94C0B40C94C0B40C94C0B4ED
:104430000C94C0B4CF92DF92EF92FF920F931F9330
:104440000F94F604009163051091640520916505B1
:10445000309166056B017C01C01AD10AE20AF30AA9
:104460009701860137FD11C02091620520952093A8
:1044700062056A547C4F8F4F9F4F60936305709322
:104480006405809365059093660581E090916205CF
:10449000911101C080E01F910F91FF90EF90DF908C
:1044A000CF900895CF93DF93C0913908D0913A0807
:1044B000209729F16091350870913608809137086E
:1044C000909138080F94EF2F6E5F7F4F24976C17F1
:1044D0007D07ACF470936906609368060F94F60448
:1044E000605A75418F4F9F4F60936A0670936B06B9
:1044F00080936C0690936D06DF91CF910895109292
:104500006A0610926B0610926C0610926D06F4CF3C
:10451000BF92CF92DF92EF92FF920F931F93CF93B0
:10452000DF936B01E9014A3009F4DFC0453109F03E
:104530008AC0DB011296ED91FC911281C681D78170
:1045400080910201809582708093000100C000007C
:1045500086E290E00197F0F7012F0295007F20E1BD
:10456000B22EB10E88EF40DA00C0000086E290E083
:104570000197F0F7103208F0A5C0812F807780688E
:1045800033DA802F31DA00C0000086E290E0019734
:10459000F0F780E829DA80E027DA00C0000086E240
:1045A00090E00197F0F78AEF1FDA00C0000086E282
:1045B00090E00197F0F77E01B0E1EB0EF11C8881ED
:1045C000807F12DA89918295807F0EDACE15DF0521
:1045D000B1F700C0000086E290E00197F0F71F5F9E
:1045E000005F1B11BFCF8091020182708093000198
:1045F000D6011296ED91FC9180819281980F928361
:104600002181921708F0EDC194819F5F948393817B
:10461000890F821710F08FEF820F8383458150E05E
:10462000440F551F70E060E0868197810F949731A9
:1046300081E0DF91CF911F910F91FF90EF90DF907C
:10464000CF90BF900895FB0102811381423309F49A
:10465000CAC108F4D2C1463409F4BFC1473409F4D1
:10466000C7C14B3329F789812B81D80112966C91F0
:10467000129713964C91213009F404C2233009F0AB
:10468000E5C138EF380F582F91E0431708F490E058
:1046900041E0531708F040E031E0561708F430E0ED
:1046A000592F542B352319F4942309F4C1CFFA80E0
:1046B00030E0F901E954FD4FD0802D543D4FF90110
:1046C000E080DDC180EE810F8068807F8DD9812FF1
:1046D0008295807F89D900C0000086E290E0019732
:1046E000F0F780E881D980E857CF8091010182609E
:1046F000809301018091020182708093000180917A
:104700000101816080930101809102018170809399
:104710000001099A119A809102018095827080931C
:10472000000100C0000086E290E00197F0F788E702
:1047300090E0CEE9DFE0FE013197F1F70197D9F77C
:1047400088EF52D900C0000086E290E00197F0F7B0
:1047500080E24AD980E048D900C0000086E290E0BB
:104760000197F0F780E040D980E83ED900C0000012
:1047700086E290E00197F0F780E036D980E134D905
:1047800000C0000086E290E00197F0F7CE010197AB
:10479000F1F7CE010197F1F7CE010197F1F7CE01C4
:1047A0000197F1F7CE010197F1F7CE010197F1F7EB
:1047B000CE010197F1F7CE010197F1F7CE010197F4
:1047C000F1F7CE010197F1F7CE010197F1F7CE0194
:1047D0000197F1F7CE010197F1F7CE010197F1F7BB
:1047E0002197F1F780E200D980E4FED800C00000F4
:1047F00086E290E00197F0F780E2F6D880E6F4D800
:1048000000C0000086E290E00197F0F7D0E0C0E041
:104810008C2F80778068E8D88D2FE6D800C0000004
:1048200086E290E00197F0F780E8DED880E0DCD8FF
:1048300000C0000086E290E00197F0F78AEFD4D83C
:1048400000C0000086E290E00197F0F790E2119836
:1048500000C080910201817080930001119A00C014
:1048600000C0119800C08091020181708093000106
:10487000119A00C000C0119800C08091020181709F
:1048800080930001119A00C000C0119800C080916F
:104890000201817080930001119A00C000C011983C
:1048A00000C080910201817080930001119A00C0C4
:1048B00000C0119800C080910201817080930001B6
:1048C000119A00C000C0119800C08091020181704F
:1048D00080930001119A00C000C0119800C080911F
:1048E0000201817080930001119A00C000C01198EC
:1048F00000C080910201817080930001119A00C074
:1049000000C0119800C08091020181708093000165
:10491000119A00C000C0119800C0809102018170FE
:1049200080930001119A00C000C0119800C08091CE
:104930000201817080930001119A00C000C011989B
:1049400000C080910201817080930001119A00C023
:1049500000C0119800C08091020181708093000115
:10496000119A00C000C0119800C0809102018170AE
:1049700080930001119A00C000C0119800C080917E
:104980000201817080930001119A00C000C000C034
:104990000000E6E2F0E03197F0F7915009F057CFD0
:1049A00088EF22D800C0000086E290E00197F0F77F
:1049B000CF5FD05FC03209F02BCF80E015D880ECFC
:1049C00013D800C0000086E290E00197F0F78091D4
:1049D00002018270809300012BCEF80185818883CB
:1049E00027CE80E026CEB901C8010F94CA0A20CE96
:1049F000D80111968C9188831BCE443191F04731B8
:104A000009F016CE1882D80112968C9112978983DC
:104A100015968C91159781508A8313968C918B8370
:104A200007CED80115964C91159750E0440F551FAD
:104A300070E060E016968D919C910F949731F8018B
:104A400012828081815083831482F2CD481708F44A
:104A5000EFCD861708F4ECCDFA80E12CD12C243070
:104A600070F426CEBE01C8010F94CA0A89819881CC
:104A70009D0D98838E0D8983FF0C09F4D9CDF7FE27
:104A8000F6CFF0CF58E0580F382FFECDEF92FF92BF
:104A90000F931F93CF93DF93EC018B017A018A85EB
:104AA0009B858617970731F0888199810F94010DB6
:104AB0001B870A87B701888199810F9403012E8192
:104AC0003F81820F932F911D9F838E8390E080E022
:104AD000DF91CF911F910F91FF90EF9008959F92DA
:104AE000AF92BF92CF92DF92EF92FF920F931F93FC
:104AF000CF93DF93EC018B01942EA52E8A859B85A5
:104B00008617970731F0888199810F94010D1B87D3
:104B10000A8788859985019649F5BC800A818E812E
:104B2000080FC880D980D6015596ED91FC91C60139
:104B30001995B80EE92CFA2C10E0F70121917F01AC
:104B4000211127C08E819F81810F911D9F838E83AC
:104B500090E080E0DF91CF911F910F91FF90EF9057
:104B6000DF90CF90BF90AF909F9008950E811F81EE
:104B7000692D7A2D888199810F940301800F912FDF
:104B8000911D288539852817390738F681E090E08E
:104B9000E1CF4B2D602FC6010F94590D080F180F50
:104BA000CCCFDF92EF92FF920F931F93CF93DF93BF
:104BB000EC01D62E1CAD0BAD7C0184E0E80EF11C9F
:104BC000E98DFA8DC7011995412F480F2D2D602FC2
:104BD000C7010F94590D9BAD890F8BAF81E090E019
:104BE000DF91CF911F910F91FF90EF90DF9008958B
:104BF000CF9380915F05811154C01092F7131092EA
:104C0000F8131092F9131092C5131092C413109256
:104C1000C7131092C6131092C91381E08093C81372
:104C200082E28093CA131092CF131092CE13E3EE58
:104C3000F3E121EF33E18FEF81932E173F07E1F787
:104C4000C1E0C093E0132AEB37EE3093D6132093E4
:104C5000D513C093D7131092D8131092D91390E4A0
:104C60009093DA131092DB1329EB37EE3093F213A3
:104C70002093F11323E232E03093C3132093C21345
:104C800097E19093E71391E19093E81390E190936B
:104C9000E5138093E4138093E3130F94080BC09300
:104CA0005F0581E08093610586EB92E19093291383
:104CB0008093281310922B1310922A13CF910895EA
:104CC00063E00D94A00E2F923F924F925F926F92ED
:104CD0007F928F929F92AF92BF92CF92DF92EF928C
:104CE000FF921F93CF93DF93CDB7DEB72C970FB60C
:104CF000F894DEBF0FBECDBF7A011901DC012D9102
:104D00003D914D915C912D833E834F835887FB01EC
:104D1000408051806280738080907B0290907C0202
:104D2000A0907D02B0907E02A50194016D817E81EC
:104D30008F8198850F94C92781110EC011E0A301BE
:104D4000920160917F027091800280918102909126
:104D500082020F94C927811110E0D1012D913D915C
:104D60004D915C9129873A874B875C87F701C0801A
:104D7000D180E280F380209114023091150240919D
:104D8000160250911702C701B6010F94C927882354
:104D900009F44EC0C0921402D0921502E09216029D
:104DA000F09217028091870290918802A091890267
:104DB000B0918A0240917F025091800260918102FD
:104DC0007091820280927B0890927C08A0927D086C
:104DD000B0927E0840937F085093800860938108CA
:104DE00070938208C0928308D0928408E09285086C
:104DF000F09286088093870890938808A09389088A
:104E0000B0938A0820E030E040E05FE36091E00D7D
:104E10007091E10D8091E20D9091E30D0F942E2899
:104E200069837A838B839C83CE0101960E947CD810
:104E30002D813E814F81588520937B0830937C08DB
:104E400040937D0850937E0840927F0850928008DE
:104E50006092810870928208D1012D913D914D910F
:104E60005C91609187087091880880918908909181
:104E70008A080F94AB2E60938708709388088093FC
:104E8000890890938A0811112FC020E030E0A90111
:104E900069857A858B859C850F94C927811133C0DC
:104EA00060E070E088EC92E469837A838B839C8372
:104EB000CE0101960E947CD82C960FB6F894DEBFE6
:104EC0000FBECDBFDF91CF911F91FF90EF90DF908C
:104ED000CF90BF90AF909F908F907F906F905F909A
:104EE0004F903F902F9008952AEF3EE74AE25FE30C
:104EF0006091E40D7091E50D8091E60D9091E70DC4
:104F00000F942E28D1CF60E070E080EA91E4CCCFFE
:104F100080912F0590913005009731F04AE050E0E4
:104F200070E060E00D94EA2560E070E0CB01089548
:104F300080912F0590913005009731F04AE050E0C4
:104F400070E060E00D94BD2460E070E0CB01089556
:104F5000CF93DF93EB010E94631E882311F0E8DFFB
:104F6000EB01CE01DF91CF910895E2DF97FD0AC0FA
:104F7000DFDF6F3F71058105910509F02CF4D8DF63
:104F8000862F089580E008958FEF0895CF93C62F60
:104F90000E94631E882311F0CF91E7CF8C2FCF9111
:104FA000089580912F0590913005892B39F0DDDF30
:104FB00091E0811101C090E0892F089591E0FCCF2C
:104FC000CF93DF93C82FD62F0E94631E882319F03A
:104FD000DF91CF91E6CF8C2F0E94151E811101C069
:104FE0008D2FDF91CF910895A3DFCB010895CF934B
:104FF000DF93EB010E94631E882319F0DF91CF91AC
:10500000F3CFCE01DF91CF9108950F931F93CF93EC
:1050100080912F05909130050097E9F0FC018F01F8
:10502000C1912C2F2F7D81F0C53411F0C536B9F711
:10503000F801108270E060E00F946723F801C083EC
:10504000CF911F910F91089570E060E0CF911F9173
:105050000F910D94672360E070E0CB01F1CFCF9208
:10506000DF92EF92FF926A017B010E94631E882308
:1050700029F0FF90EF90DF90CF90C7CFC701B60126
:10508000FF90EF90DF90CF9008958F929F92AF9214
:10509000BF92CF92DF92EF92FF920F931F93CF9325
:1050A0008BE7E82E88E0F82E0BE712E098E0C92E97
:1050B0009EE0D92EC0E088E58C0F0E94631E8823F5
:1050C00009F477C0A2DF4B015C018C2F0E94AD1D5B
:1050D000882309F464C0F801208131814281538121
:1050E000C501B4010F94AB2EF701608371838283F5
:1050F0009383CF5FF4E0EF0EF11C0C5F1F4F84E051
:10510000C80ED11CC330B9F685E40E94631E882303
:1051100009F45AC07ADF6B017C0183E00E94AD1D67
:10512000882371F020918702309188024091890292
:1051300050918A02C701B6010F94AB2E6B017C011E
:10514000C0928708D0928808E0928908F0928A0875
:1051500040E050E0BA0186E482DF20E030E0A901BF
:105160000F94D23018167CF450DF20E030E040E796
:1051700052E40F94872F60937102709372028093B0
:10518000730290937402CF911F910F91FF90EF9053
:10519000DF90CF90BF90AF909F908F900895F601D1
:1051A0002081318142815381C501B4010F94AA2E1F
:1051B0009BCFF80180819181A281B381F701808327
:1051C0009183A283B38395CF8091870290918802C7
:1051D000A0918902B0918A028093870890938808F1
:1051E000A0938908B0938A08B3CFEF92FF920F93F0
:1051F0001F93CF93DF9300D000D000D01F921F9257
:10520000CDB7DEB77C012091EF05422F022E000CB6
:10521000550B8091F005833099F1843051F188E984
:1052200097E15F932F939F938F938E010F5F1F4F93
:105230001F930F930F946227C7010E94DDDC4FE399
:1052400050E0B8018FEE97E00F94D1310F900F909E
:105250000F900F900F900F902B960FB6F894DEBF23
:105260000FBECDBFDF91CF911F910F91FF90EF90B7
:10527000089584EA97E127FDD4CF8FE897E1D1CF55
:105280008DEA97E1CECFE091720886E0E802F00166
:105290001124E45CF74F80819181A7CF8091A3080E
:1052A0009091A408A2CFCF93DF93CDB7DEB720E2D1
:1052B000488559856F818E810F945A00DF91CF9177
:1052C0000895282F10926E088091590890915A08DD
:1052D000A0915B08B0915C08B7FF08C01092590814
:1052E00010925A0810925B0810925C088091F305A6
:1052F000882331F08091590880934E0810926908F4
:10530000809148081816FCF4082E000C990B821B9B
:10531000910920914E08022E000C330B28173907F3
:1053200094F097FF02C090E080E080934E08092E31
:10533000000CAA0BBB0B8093590890935A08A093BA
:105340005B08B0935C0880914E086623A9F09091A9
:105350004F08891714F480934F0820914F08022EAC
:10536000000C330B2C5F3F4F482F082E000C550BC1
:10537000241735071CF4845080934F080895E0915A
:10538000E305E63028F581E08E0F8093E305409138
:10539000590850915A0860915B0870915C082091FF
:1053A0004F08909148088091770839E0E39FF00119
:1053B0001124E355FA4FA091BA13B091BB13B183F6
:1053C000A083428353836483758326839783808776
:1053D0000895CF93DF93CDB7DEB78E819091DA1029
:1053E000891778F08093DA109E01275F3F4F4F8135
:1053F000588564E570E085E890E10F94912710925C
:105400008410DF91CF9108950F931F93CF93DF9373
:105410008C016F3F19F41092DA1060E02091DA10DD
:10542000862F062E000C990B2817190609F004F593
:105430006093DA10C8010F941827800F911FEC01B8
:10544000C01BD10BC535D1053CF00197FC0124915F
:10545000207C2038D1F3F3CFDD27AE01B80185E8F9
:1054600090E10F943927CB57DF4E188210928410A9
:10547000DF91CF911F910F910895CF93DF9390917A
:10548000B30D93FD5DC0C82F89E40E94631E88237D
:1054900009F447C06ADD90E01816190614F481E09B
:1054A00090E026E0289FF001299FF00D1124E45C94
:1054B000F74F82819381D0E08E36910514F08EE60D
:1054C00090E090933A08809339080E9452226091AC
:1054D000390870913A08072E000C880B990B0F942D
:1054E000CF272091350830913608409137085091E8
:1054F00038080F94D23018168CF085E990E160E0FE
:1055000083DF61E06C278C2F0E9499CCCC23C1F003
:1055100060E08D2FDF91CF910C949EAB84EA90E1F7
:10552000EECF83E50E94631ED82F811107C0CC23E4
:1055300039F082E50E94631E882311F055DDBCCF4F
:10554000DF91CF9108950F931F930F94F60400916C
:10555000CF081091D0082091D1083091D208601B5B
:10556000710B820B930B97FD0EC086B186FB8827CB
:1055700080F991E08927349B8260079B02C0329BAF
:1055800084608093D3088091D30881709091D30870
:1055900091FD82609091A405981749F0813009F13E
:1055A00048F0823079F0833091F08093A4051F9108
:1055B0000F910895913079F09230B9F79091A30549
:1055C00091500CC0992339F09330C1F3EECF913054
:1055D000A9F3923051F79091A3059F5F9093A30593
:1055E000E4CF992359F3933001F7F5CFCF92DF92AF
:1055F000EF92FF92CF93C82F0F94F6046B017C01BA
:1056000024EA30E74DE75FE36091340270913502A0
:1056100080913602909137020F94C92787FD18C0F8
:105620008AEF90E0A0E0B0E08C0D9D1DAE1DBF1D87
:105630008093920590939305A0939405B09395055C
:10564000C0932B02CF91FF90EF90DF90CF90089501
:1056500080E090E0DC01E8CFCBDA3E98469A3C98B7
:10566000449A3A98429A0F98179A6DDF1092A305C0
:105670000895FC0180E0309749F09491992331F02E
:10568000907C903809F08F5F3196F7CF089500979E
:1056900051F0FC0180E09191992331F0907C903899
:1056A000D1F38F5FF8CF80E00895AF92BF92CF9291
:1056B000DF92EF92FF920F931F93CF93DF93EC0152
:1056C0005B018A01FB01199587FD16C0C82ED12CFC
:1056D000F12CE12C2196F801C082D182E282F38282
:1056E000CE01DF91CF911F910F91FF90EF90DF904E
:1056F000CF90BF90AF900895982F907E903CA9F4E2
:105700008F7190E0B0E0A0E06C017D0156E0CC0C20
:10571000DD1CEE1CFF1C5A95D1F7CE010196F50158
:1057200019958F73C82A2296D6CF982F907F903ED6
:1057300011F58F7090E0B0E0A0E06C017D0136E0E3
:10574000CC0CDD1CEE1CFF1C3A95D1F7CE01019666
:10575000F50119958F73C82A46E0CC0CDD1CEE1CB0
:10576000FF1C4A95D1F7CE010296F50119958F736A
:10577000C82A2396B0CF982F987F903F79F58770ED
:1057800090E0B0E0A0E06C017D0186E0CC0CDD1C77
:10579000EE1CFF1C8A95D1F7CE010196F5011995F3
:1057A0008F73C82A96E0CC0CDD1CEE1CFF1C9A956A
:1057B000D1F7CE010296F50119958F73C82A26E01C
:1057C000CC0CDD1CEE1CFF1C2A95D1F7CE010396F4
:1057D000F50119958F73C82A24967DCF982F907C58
:1057E000903841F4807C803869F42196CE01F5012F
:1057F0001995F8CF8E7F8D3F28F02196CE01F501C7
:105800001995F8CFC12CD12C760165CF20E030E07E
:1058100040E05FE360919F087091A0088091A1082B
:105820009091A2080F94AB2E0F94EF2FCB01089507
:105830009CE0899F802D112491E0980F9093600542
:105840002CE0280F2093710830E02E5F3F4F4091ED
:10585000F4134217130619F014F080E00895209114
:10586000F6139217D0F7662341F08E5F0F942A0C3F
:10587000809171088E5F0F942A0C8091710890912D
:10588000F413891750F32091F613909160052917AE
:1058900020F31092F7138093F81381E0089520917C
:1058A0005E05022E000C330B8217130641F0809325
:1058B0005E056CE378E180EC93E10D94010D0895B1
:1058C000CF92DF92EF92FF920F931F93CF93DF93CC
:1058D000CDB7DEB72C970FB6F894DEBF0FBECDBFA5
:1058E0006F3F71058105910509F0C8F48CEB93E1D8
:1058F00058D9E091C413F091C5133196849190E08A
:105900002C960FB6F894DEBF0FBECDBFDF91CF91BE
:105910001F910F91FF90EF90DF90CF900895F0903E
:10592000F713E090F8132091610521110FC046E9AB
:1059300052E16E2D8F2D0F94C40D90E080E0F80E93
:10594000F092F713E092F8139927DACFC090C413BE
:10595000D090C51320EC33E13A8329832F2D30E01A
:105960003C832B832E2D30E03E832D8318861F82AF
:105970002FEF3FEF3A8729871C861B860FE615E23B
:105980009E012F5F3F4FAB01BC01C6010E94BAFAD6
:10599000B60180EC93E10F94010D8F819885CFCFF4
:1059A0004F925F926F927F928F929F92BF92CF920F
:1059B000DF92EF92FF920F931F93CF93DF9300D06C
:1059C00000D01F921F92CDB7DEB77C016A0149015A
:1059D000FB0190818CE0989F800D1124982FF70196
:1059E0002081822F880F820F880F8093F713909366
:1059F000F8134115510561F1FA82E9827C836B83CA
:105A000001111FC0AE014B5F5F4FB401C6014DDEF7
:105A10006C016D817E818F8198856115710581058D
:105A20009105B1F04DDFF70180818F5F8083853173
:105A300048F3CE0101960E94DE1CE4CFB12C860112
:105A400029C08A01B12C26C0452846284728B1F72D
:105A500028960FB6F894DEBF0FBECDBFDF91CF9171
:105A60001F910F91FF90EF90DF90CF90BF909F908C
:105A70008F907F906F905F904F900895B39407C080
:105A8000B1102DC001151105C9F20F5F1F4F01158F
:105A90001105A9F2AE014B5F5F4FB401C60105DEEF
:105AA0006C014D805E806F807884411451046104E4
:105AB0007104A9F0F0E24F1651046104710401F37E
:105AC000D301C2018D97A109B1090297A105B105C2
:105AD00030F04BE2441651046104710479F6F70189
